{
  "_format": "hh-sol-artifact-1",
  "contractName": "STARNFT11",
  "sourceName": "contracts/STARNFT11.sol",
  "abi": [
    {
      "inputs": [
        {
          "internalType": "string",
          "name": "tokenName",
          "type": "string"
        },
        {
          "internalType": "string",
          "name": "symbol",
          "type": "string"
        }
      ],
      "stateMutability": "nonpayable",
      "type": "constructor"
    },
    {
      "anonymous": false,
      "inputs": [
        {
          "indexed": true,
          "internalType": "address",
          "name": "owner",
          "type": "address"
        },
        {
          "indexed": true,
          "internalType": "address",
          "name": "approved",
          "type": "address"
        },
        {
          "indexed": true,
          "internalType": "uint256",
          "name": "tokenId",
          "type": "uint256"
        }
      ],
      "name": "Approval",
      "type": "event"
    },
    {
      "anonymous": false,
      "inputs": [
        {
          "indexed": true,
          "internalType": "address",
          "name": "owner",
          "type": "address"
        },
        {
          "indexed": true,
          "internalType": "address",
          "name": "operator",
          "type": "address"
        },
        {
          "indexed": false,
          "internalType": "bool",
          "name": "approved",
          "type": "bool"
        }
      ],
      "name": "ApprovalForAll",
      "type": "event"
    },
    {
      "anonymous": false,
      "inputs": [
        {
          "indexed": true,
          "internalType": "address",
          "name": "previousOwner",
          "type": "address"
        },
        {
          "indexed": true,
          "internalType": "address",
          "name": "newOwner",
          "type": "address"
        }
      ],
      "name": "OwnershipTransferred",
      "type": "event"
    },
    {
      "anonymous": false,
      "inputs": [
        {
          "indexed": true,
          "internalType": "address",
          "name": "from",
          "type": "address"
        },
        {
          "indexed": true,
          "internalType": "address",
          "name": "to",
          "type": "address"
        },
        {
          "indexed": true,
          "internalType": "uint256",
          "name": "tokenId",
          "type": "uint256"
        }
      ],
      "name": "Transfer",
      "type": "event"
    },
    {
      "inputs": [
        {
          "internalType": "address",
          "name": "to",
          "type": "address"
        },
        {
          "internalType": "uint256",
          "name": "tokenId",
          "type": "uint256"
        }
      ],
      "name": "approve",
      "outputs": [],
      "stateMutability": "nonpayable",
      "type": "function"
    },
    {
      "inputs": [
        {
          "internalType": "address",
          "name": "owner",
          "type": "address"
        }
      ],
      "name": "balanceOf",
      "outputs": [
        {
          "internalType": "uint256",
          "name": "",
          "type": "uint256"
        }
      ],
      "stateMutability": "view",
      "type": "function"
    },
    {
      "inputs": [
        {
          "internalType": "uint256",
          "name": "tokenId",
          "type": "uint256"
        }
      ],
      "name": "getApproved",
      "outputs": [
        {
          "internalType": "address",
          "name": "",
          "type": "address"
        }
      ],
      "stateMutability": "view",
      "type": "function"
    },
    {
      "inputs": [
        {
          "internalType": "address",
          "name": "owner",
          "type": "address"
        },
        {
          "internalType": "address",
          "name": "operator",
          "type": "address"
        }
      ],
      "name": "isApprovedForAll",
      "outputs": [
        {
          "internalType": "bool",
          "name": "",
          "type": "bool"
        }
      ],
      "stateMutability": "view",
      "type": "function"
    },
    {
      "inputs": [
        {
          "internalType": "address",
          "name": "_recipient",
          "type": "address"
        },
        {
          "internalType": "string",
          "name": "_uri",
          "type": "string"
        }
      ],
      "name": "mintToken",
      "outputs": [
        {
          "internalType": "uint256",
          "name": "",
          "type": "uint256"
        }
      ],
      "stateMutability": "nonpayable",
      "type": "function"
    },
    {
      "inputs": [],
      "name": "name",
      "outputs": [
        {
          "internalType": "string",
          "name": "",
          "type": "string"
        }
      ],
      "stateMutability": "view",
      "type": "function"
    },
    {
      "inputs": [],
      "name": "owner",
      "outputs": [
        {
          "internalType": "address",
          "name": "",
          "type": "address"
        }
      ],
      "stateMutability": "view",
      "type": "function"
    },
    {
      "inputs": [
        {
          "internalType": "uint256",
          "name": "tokenId",
          "type": "uint256"
        }
      ],
      "name": "ownerOf",
      "outputs": [
        {
          "internalType": "address",
          "name": "",
          "type": "address"
        }
      ],
      "stateMutability": "view",
      "type": "function"
    },
    {
      "inputs": [],
      "name": "renounceOwnership",
      "outputs": [],
      "stateMutability": "nonpayable",
      "type": "function"
    },
    {
      "inputs": [
        {
          "internalType": "address",
          "name": "from",
          "type": "address"
        },
        {
          "internalType": "address",
          "name": "to",
          "type": "address"
        },
        {
          "internalType": "uint256",
          "name": "tokenId",
          "type": "uint256"
        }
      ],
      "name": "safeTransferFrom",
      "outputs": [],
      "stateMutability": "nonpayable",
      "type": "function"
    },
    {
      "inputs": [
        {
          "internalType": "address",
          "name": "from",
          "type": "address"
        },
        {
          "internalType": "address",
          "name": "to",
          "type": "address"
        },
        {
          "internalType": "uint256",
          "name": "tokenId",
          "type": "uint256"
        },
        {
          "internalType": "bytes",
          "name": "_data",
          "type": "bytes"
        }
      ],
      "name": "safeTransferFrom",
      "outputs": [],
      "stateMutability": "nonpayable",
      "type": "function"
    },
    {
      "inputs": [
        {
          "internalType": "address",
          "name": "operator",
          "type": "address"
        },
        {
          "internalType": "bool",
          "name": "approved",
          "type": "bool"
        }
      ],
      "name": "setApprovalForAll",
      "outputs": [],
      "stateMutability": "nonpayable",
      "type": "function"
    },
    {
      "inputs": [
        {
          "internalType": "bytes4",
          "name": "interfaceId",
          "type": "bytes4"
        }
      ],
      "name": "supportsInterface",
      "outputs": [
        {
          "internalType": "bool",
          "name": "",
          "type": "bool"
        }
      ],
      "stateMutability": "view",
      "type": "function"
    },
    {
      "inputs": [],
      "name": "symbol",
      "outputs": [
        {
          "internalType": "string",
          "name": "",
          "type": "string"
        }
      ],
      "stateMutability": "view",
      "type": "function"
    },
    {
      "inputs": [
        {
          "internalType": "uint256",
          "name": "tokenId",
          "type": "uint256"
        }
      ],
      "name": "tokenItemStat",
      "outputs": [
        {
          "internalType": "string",
          "name": "",
          "type": "string"
        }
      ],
      "stateMutability": "view",
      "type": "function"
    },
    {
      "inputs": [
        {
          "internalType": "uint256",
          "name": "tokenId",
          "type": "uint256"
        }
      ],
      "name": "tokenURI",
      "outputs": [
        {
          "internalType": "string",
          "name": "",
          "type": "string"
        }
      ],
      "stateMutability": "view",
      "type": "function"
    },
    {
      "inputs": [
        {
          "internalType": "address",
          "name": "from",
          "type": "address"
        },
        {
          "internalType": "address",
          "name": "to",
          "type": "address"
        },
        {
          "internalType": "uint256",
          "name": "tokenId",
          "type": "uint256"
        }
      ],
      "name": "transferFrom",
      "outputs": [],
      "stateMutability": "nonpayable",
      "type": "function"
    },
    {
      "inputs": [
        {
          "internalType": "address",
          "name": "newOwner",
          "type": "address"
        }
      ],
      "name": "transferOwnership",
      "outputs": [],
      "stateMutability": "nonpayable",
      "type": "function"
    }
  ],
  "bytecode": "0x60806040523480156200001157600080fd5b506040516200307538038062003075833981810160405281019062000037919062000250565b81818160009080519060200190620000519291906200012e565b5080600190805190602001906200006a9291906200012e565b50505060006200007f6200012660201b60201c565b905080600660006101000a81548173ffffffffffffffffffffffffffffffffffffffff021916908373ffffffffffffffffffffffffffffffffffffffff1602179055508073ffffffffffffffffffffffffffffffffffffffff16600073ffffffffffffffffffffffffffffffffffffffff167f8be0079c531659141344cd1fd0a4f28419497f9722a3daafe3b4186f6b6457e060405160405180910390a350505062000433565b600033905090565b8280546200013c9062000358565b90600052602060002090601f016020900481019282620001605760008555620001ac565b82601f106200017b57805160ff1916838001178555620001ac565b82800160010185558215620001ac579182015b82811115620001ab5782518255916020019190600101906200018e565b5b509050620001bb9190620001bf565b5090565b5b80821115620001da576000816000905550600101620001c0565b5090565b6000620001f5620001ef84620002ec565b620002c3565b9050828152602081018484840111156200020e57600080fd5b6200021b84828562000322565b509392505050565b600082601f8301126200023557600080fd5b815162000247848260208601620001de565b91505092915050565b600080604083850312156200026457600080fd5b600083015167ffffffffffffffff8111156200027f57600080fd5b6200028d8582860162000223565b925050602083015167ffffffffffffffff811115620002ab57600080fd5b620002b98582860162000223565b9150509250929050565b6000620002cf620002e2565b9050620002dd82826200038e565b919050565b6000604051905090565b600067ffffffffffffffff8211156200030a5762000309620003f3565b5b620003158262000422565b9050602081019050919050565b60005b838110156200034257808201518184015260208101905062000325565b8381111562000352576000848401525b50505050565b600060028204905060018216806200037157607f821691505b60208210811415620003885762000387620003c4565b5b50919050565b620003998262000422565b810181811067ffffffffffffffff82111715620003bb57620003ba620003f3565b5b80604052505050565b7f4e487b7100000000000000000000000000000000000000000000000000000000600052602260045260246000fd5b7f4e487b7100000000000000000000000000000000000000000000000000000000600052604160045260246000fd5b6000601f19601f8301169050919050565b612c3280620004436000396000f3fe608060405234801561001057600080fd5b50600436106101165760003560e01c806370a08231116100a2578063a22cb46511610071578063a22cb465146102f3578063b88d4fde1461030f578063c87b56dd1461032b578063e985e9c51461035b578063f2fde38b1461038b57610116565b806370a082311461027d578063715018a6146102ad5780638da5cb5b146102b757806395d89b41146102d557610116565b806323b872dd116100e957806323b872dd146101b55780633385e518146101d15780633d02d0c91461020157806342842e0e146102315780636352211e1461024d57610116565b806301ffc9a71461011b57806306fdde031461014b578063081812fc14610169578063095ea7b314610199575b600080fd5b61013560048036038101906101309190611dad565b6103a7565b6040516101429190612181565b60405180910390f35b610153610489565b604051610160919061219c565b60405180910390f35b610183600480360381019061017e9190611dff565b61051b565b604051610190919061211a565b60405180910390f35b6101b360048036038101906101ae9190611d71565b6105a0565b005b6101cf60048036038101906101ca9190611c17565b6106b8565b005b6101eb60048036038101906101e69190611dff565b610718565b6040516101f8919061219c565b60405180910390f35b61021b60048036038101906102169190611d1d565b61080b565b60405161022891906123de565b60405180910390f35b61024b60048036038101906102469190611c17565b610843565b005b61026760048036038101906102629190611dff565b610863565b604051610274919061211a565b60405180910390f35b61029760048036038101906102929190611bb2565b610915565b6040516102a491906123de565b60405180910390f35b6102b56109cd565b005b6102bf610b0a565b6040516102cc919061211a565b60405180910390f35b6102dd610b34565b6040516102ea919061219c565b60405180910390f35b61030d60048036038101906103089190611ce1565b610bc6565b005b61032960048036038101906103249190611c66565b610d47565b005b61034560048036038101906103409190611dff565b610da9565b604051610352919061219c565b60405180910390f35b61037560048036038101906103709190611bdb565b610e9c565b6040516103829190612181565b60405180910390f35b6103a560048036038101906103a09190611bb2565b610f30565b005b60007f80ac58cd000000000000000000000000000000000000000000000000000000007bffffffffffffffffffffffffffffffffffffffffffffffffffffffff1916827bffffffffffffffffffffffffffffffffffffffffffffffffffffffff1916148061047257507f5b5e139f000000000000000000000000000000000000000000000000000000007bffffffffffffffffffffffffffffffffffffffffffffffffffffffff1916827bffffffffffffffffffffffffffffffffffffffffffffffffffffffff1916145b806104825750610481826110dc565b5b9050919050565b606060008054610498906125f8565b80601f01602080910402602001604051908101604052809291908181526020018280546104c4906125f8565b80156105115780601f106104e657610100808354040283529160200191610511565b820191906000526020600020905b8154815290600101906020018083116104f457829003601f168201915b5050505050905090565b600061052682611146565b610565576040517f08c379a000000000000000000000000000000000000000000000000000000000815260040161055c9061231e565b60405180910390fd5b6004600083815260200190815260200160002060009054906101000a900473ffffffffffffffffffffffffffffffffffffffff169050919050565b60006105ab82610863565b90508073ffffffffffffffffffffffffffffffffffffffff168373ffffffffffffffffffffffffffffffffffffffff16141561061c576040517f08c379a00000000000000000000000000000000000000000000000000000000081526004016106139061239e565b60405180910390fd5b8073ffffffffffffffffffffffffffffffffffffffff1661063b6111b2565b73ffffffffffffffffffffffffffffffffffffffff16148061066a5750610669816106646111b2565b610e9c565b5b6106a9576040517f08c379a00000000000000000000000000000000000000000000000000000000081526004016106a09061229e565b60405180910390fd5b6106b383836111ba565b505050565b6106c96106c36111b2565b82611273565b610708576040517f08c379a00000000000000000000000000000000000000000000000000000000081526004016106ff906123be565b60405180910390fd5b610713838383611351565b505050565b606061072382611146565b610762576040517f08c379a00000000000000000000000000000000000000000000000000000000081526004016107599061221e565b60405180910390fd5b6000600960008481526020019081526020016000208054610782906125f8565b80601f01602080910402602001604051908101604052809291908181526020018280546107ae906125f8565b80156107fb5780601f106107d0576101008083540402835291602001916107fb565b820191906000526020600020905b8154815290600101906020018083116107de57829003601f168201915b5050505050905080915050919050565b600061081760076115ad565b600061082360076115c3565b905061082f84826115d1565b610839818461179f565b8091505092915050565b61085e83838360405180602001604052806000815250610d47565b505050565b6000806002600084815260200190815260200160002060009054906101000a900473ffffffffffffffffffffffffffffffffffffffff169050600073ffffffffffffffffffffffffffffffffffffffff168173ffffffffffffffffffffffffffffffffffffffff16141561090c576040517f08c379a0000000000000000000000000000000000000000000000000000000008152600401610903906122de565b60405180910390fd5b80915050919050565b60008073ffffffffffffffffffffffffffffffffffffffff168273ffffffffffffffffffffffffffffffffffffffff161415610986576040517f08c379a000000000000000000000000000000000000000000000000000000000815260040161097d906122be565b60405180910390fd5b600360008373ffffffffffffffffffffffffffffffffffffffff1673ffffffffffffffffffffffffffffffffffffffff168152602001908152602001600020549050919050565b6109d56111b2565b73ffffffffffffffffffffffffffffffffffffffff166109f3610b0a565b73ffffffffffffffffffffffffffffffffffffffff1614610a49576040517f08c379a0000000000000000000000000000000000000000000000000000000008152600401610a409061233e565b60405180910390fd5b600073ffffffffffffffffffffffffffffffffffffffff16600660009054906101000a900473ffffffffffffffffffffffffffffffffffffffff1673ffffffffffffffffffffffffffffffffffffffff167f8be0079c531659141344cd1fd0a4f28419497f9722a3daafe3b4186f6b6457e060405160405180910390a36000600660006101000a81548173ffffffffffffffffffffffffffffffffffffffff021916908373ffffffffffffffffffffffffffffffffffffffff160217905550565b6000600660009054906101000a900473ffffffffffffffffffffffffffffffffffffffff16905090565b606060018054610b43906125f8565b80601f0160208091040260200160405190810160405280929190818152602001828054610b6f906125f8565b8015610bbc5780601f10610b9157610100808354040283529160200191610bbc565b820191906000526020600020905b815481529060010190602001808311610b9f57829003601f168201915b5050505050905090565b610bce6111b2565b73ffffffffffffffffffffffffffffffffffffffff168273ffffffffffffffffffffffffffffffffffffffff161415610c3c576040517f08c379a0000000000000000000000000000000000000000000000000000000008152600401610c339061225e565b60405180910390fd5b8060056000610c496111b2565b73ffffffffffffffffffffffffffffffffffffffff1673ffffffffffffffffffffffffffffffffffffffff16815260200190815260200160002060008473ffffffffffffffffffffffffffffffffffffffff1673ffffffffffffffffffffffffffffffffffffffff16815260200190815260200160002060006101000a81548160ff0219169083151502179055508173ffffffffffffffffffffffffffffffffffffffff16610cf66111b2565b73ffffffffffffffffffffffffffffffffffffffff167f17307eab39ab6107e8899845ad3d59bd9653f200f220920489ca2b5937696c3183604051610d3b9190612181565b60405180910390a35050565b610d58610d526111b2565b83611273565b610d97576040517f08c379a0000000000000000000000000000000000000000000000000000000008152600401610d8e906123be565b60405180910390fd5b610da3848484846117cb565b50505050565b6060610db482611146565b610df3576040517f08c379a0000000000000000000000000000000000000000000000000000000008152600401610dea9061237e565b60405180910390fd5b6000600860008481526020019081526020016000208054610e13906125f8565b80601f0160208091040260200160405190810160405280929190818152602001828054610e3f906125f8565b8015610e8c5780601f10610e6157610100808354040283529160200191610e8c565b820191906000526020600020905b815481529060010190602001808311610e6f57829003601f168201915b5050505050905080915050919050565b6000600560008473ffffffffffffffffffffffffffffffffffffffff1673ffffffffffffffffffffffffffffffffffffffff16815260200190815260200160002060008373ffffffffffffffffffffffffffffffffffffffff1673ffffffffffffffffffffffffffffffffffffffff16815260200190815260200160002060009054906101000a900460ff16905092915050565b610f386111b2565b73ffffffffffffffffffffffffffffffffffffffff16610f56610b0a565b73ffffffffffffffffffffffffffffffffffffffff1614610fac576040517f08c379a0000000000000000000000000000000000000000000000000000000008152600401610fa39061233e565b60405180910390fd5b600073ffffffffffffffffffffffffffffffffffffffff168173ffffffffffffffffffffffffffffffffffffffff16141561101c576040517f08c379a0000000000000000000000000000000000000000000000000000000008152600401611013906121de565b60405180910390fd5b8073ffffffffffffffffffffffffffffffffffffffff16600660009054906101000a900473ffffffffffffffffffffffffffffffffffffffff1673ffffffffffffffffffffffffffffffffffffffff167f8be0079c531659141344cd1fd0a4f28419497f9722a3daafe3b4186f6b6457e060405160405180910390a380600660006101000a81548173ffffffffffffffffffffffffffffffffffffffff021916908373ffffffffffffffffffffffffffffffffffffffff16021790555050565b60007f01ffc9a7000000000000000000000000000000000000000000000000000000007bffffffffffffffffffffffffffffffffffffffffffffffffffffffff1916827bffffffffffffffffffffffffffffffffffffffffffffffffffffffff1916149050919050565b60008073ffffffffffffffffffffffffffffffffffffffff166002600084815260200190815260200160002060009054906101000a900473ffffffffffffffffffffffffffffffffffffffff1673ffffffffffffffffffffffffffffffffffffffff1614159050919050565b600033905090565b816004600083815260200190815260200160002060006101000a81548173ffffffffffffffffffffffffffffffffffffffff021916908373ffffffffffffffffffffffffffffffffffffffff160217905550808273ffffffffffffffffffffffffffffffffffffffff1661122d83610863565b73ffffffffffffffffffffffffffffffffffffffff167f8c5be1e5ebec7d5bd14f71427d1e84f3dd0314c0f7b2291e5b200ac8c7c3b92560405160405180910390a45050565b600061127e82611146565b6112bd576040517f08c379a00000000000000000000000000000000000000000000000000000000081526004016112b49061227e565b60405180910390fd5b60006112c883610863565b90508073ffffffffffffffffffffffffffffffffffffffff168473ffffffffffffffffffffffffffffffffffffffff16148061133757508373ffffffffffffffffffffffffffffffffffffffff1661131f8461051b565b73ffffffffffffffffffffffffffffffffffffffff16145b8061134857506113478185610e9c565b5b91505092915050565b8273ffffffffffffffffffffffffffffffffffffffff1661137182610863565b73ffffffffffffffffffffffffffffffffffffffff16146113c7576040517f08c379a00000000000000000000000000000000000000000000000000000000081526004016113be9061235e565b60405180910390fd5b600073ffffffffffffffffffffffffffffffffffffffff168273ffffffffffffffffffffffffffffffffffffffff161415611437576040517f08c379a000000000000000000000000000000000000000000000000000000000815260040161142e9061223e565b60405180910390fd5b611442838383611827565b61144d6000826111ba565b6001600360008573ffffffffffffffffffffffffffffffffffffffff1673ffffffffffffffffffffffffffffffffffffffff168152602001908152602001600020600082825461149d919061250e565b925050819055506001600360008473ffffffffffffffffffffffffffffffffffffffff1673ffffffffffffffffffffffffffffffffffffffff16815260200190815260200160002060008282546114f491906124b8565b92505081905550816002600083815260200190815260200160002060006101000a81548173ffffffffffffffffffffffffffffffffffffffff021916908373ffffffffffffffffffffffffffffffffffffffff160217905550808273ffffffffffffffffffffffffffffffffffffffff168473ffffffffffffffffffffffffffffffffffffffff167fddf252ad1be2c89b69c2b068fc378daa952ba7f163c4a11628f55a4df523b3ef60405160405180910390a4505050565b6001816000016000828254019250508190555050565b600081600001549050919050565b600073ffffffffffffffffffffffffffffffffffffffff168273ffffffffffffffffffffffffffffffffffffffff161415611641576040517f08c379a0000000000000000000000000000000000000000000000000000000008152600401611638906122fe565b60405180910390fd5b61164a81611146565b1561168a576040517f08c379a0000000000000000000000000000000000000000000000000000000008152600401611681906121fe565b60405180910390fd5b61169660008383611827565b6001600360008473ffffffffffffffffffffffffffffffffffffffff1673ffffffffffffffffffffffffffffffffffffffff16815260200190815260200160002060008282546116e691906124b8565b92505081905550816002600083815260200190815260200160002060006101000a81548173ffffffffffffffffffffffffffffffffffffffff021916908373ffffffffffffffffffffffffffffffffffffffff160217905550808273ffffffffffffffffffffffffffffffffffffffff16600073ffffffffffffffffffffffffffffffffffffffff167fddf252ad1be2c89b69c2b068fc378daa952ba7f163c4a11628f55a4df523b3ef60405160405180910390a45050565b806008600084815260200190815260200160002090805190602001906117c69291906119d6565b505050565b6117d6848484611351565b6117e28484848461182c565b611821576040517f08c379a0000000000000000000000000000000000000000000000000000000008152600401611818906121be565b60405180910390fd5b50505050565b505050565b600061184d8473ffffffffffffffffffffffffffffffffffffffff166119c3565b156119b6578373ffffffffffffffffffffffffffffffffffffffff1663150b7a026118766111b2565b8786866040518563ffffffff1660e01b81526004016118989493929190612135565b602060405180830381600087803b1580156118b257600080fd5b505af19250505080156118e357506040513d601f19601f820116820180604052508101906118e09190611dd6565b60015b611966573d8060008114611913576040519150601f19603f3d011682016040523d82523d6000602084013e611918565b606091505b5060008151141561195e576040517f08c379a0000000000000000000000000000000000000000000000000000000008152600401611955906121be565b60405180910390fd5b805181602001fd5b63150b7a0260e01b7bffffffffffffffffffffffffffffffffffffffffffffffffffffffff1916817bffffffffffffffffffffffffffffffffffffffffffffffffffffffff1916149150506119bb565b600190505b949350505050565b600080823b905060008111915050919050565b8280546119e2906125f8565b90600052602060002090601f016020900481019282611a045760008555611a4b565b82601f10611a1d57805160ff1916838001178555611a4b565b82800160010185558215611a4b579182015b82811115611a4a578251825591602001919060010190611a2f565b5b509050611a589190611a5c565b5090565b5b80821115611a75576000816000905550600101611a5d565b5090565b6000611a8c611a878461241e565b6123f9565b905082815260208101848484011115611aa457600080fd5b611aaf8482856125b6565b509392505050565b6000611aca611ac58461244f565b6123f9565b905082815260208101848484011115611ae257600080fd5b611aed8482856125b6565b509392505050565b600081359050611b0481612ba0565b92915050565b600081359050611b1981612bb7565b92915050565b600081359050611b2e81612bce565b92915050565b600081519050611b4381612bce565b92915050565b600082601f830112611b5a57600080fd5b8135611b6a848260208601611a79565b91505092915050565b600082601f830112611b8457600080fd5b8135611b94848260208601611ab7565b91505092915050565b600081359050611bac81612be5565b92915050565b600060208284031215611bc457600080fd5b6000611bd284828501611af5565b91505092915050565b60008060408385031215611bee57600080fd5b6000611bfc85828601611af5565b9250506020611c0d85828601611af5565b9150509250929050565b600080600060608486031215611c2c57600080fd5b6000611c3a86828701611af5565b9350506020611c4b86828701611af5565b9250506040611c5c86828701611b9d565b9150509250925092565b60008060008060808587031215611c7c57600080fd5b6000611c8a87828801611af5565b9450506020611c9b87828801611af5565b9350506040611cac87828801611b9d565b925050606085013567ffffffffffffffff811115611cc957600080fd5b611cd587828801611b49565b91505092959194509250565b60008060408385031215611cf457600080fd5b6000611d0285828601611af5565b9250506020611d1385828601611b0a565b9150509250929050565b60008060408385031215611d3057600080fd5b6000611d3e85828601611af5565b925050602083013567ffffffffffffffff811115611d5b57600080fd5b611d6785828601611b73565b9150509250929050565b60008060408385031215611d8457600080fd5b6000611d9285828601611af5565b9250506020611da385828601611b9d565b9150509250929050565b600060208284031215611dbf57600080fd5b6000611dcd84828501611b1f565b91505092915050565b600060208284031215611de857600080fd5b6000611df684828501611b34565b91505092915050565b600060208284031215611e1157600080fd5b6000611e1f84828501611b9d565b91505092915050565b611e3181612542565b82525050565b611e4081612554565b82525050565b6000611e5182612480565b611e5b8185612496565b9350611e6b8185602086016125c5565b611e74816126e8565b840191505092915050565b6000611e8a8261248b565b611e9481856124a7565b9350611ea48185602086016125c5565b611ead816126e8565b840191505092915050565b6000611ec56032836124a7565b9150611ed0826126f9565b604082019050919050565b6000611ee86026836124a7565b9150611ef382612748565b604082019050919050565b6000611f0b601c836124a7565b9150611f1682612797565b602082019050919050565b6000611f2e6035836124a7565b9150611f39826127c0565b604082019050919050565b6000611f516024836124a7565b9150611f5c8261280f565b604082019050919050565b6000611f746019836124a7565b9150611f7f8261285e565b602082019050919050565b6000611f97602c836124a7565b9150611fa282612887565b604082019050919050565b6000611fba6038836124a7565b9150611fc5826128d6565b604082019050919050565b6000611fdd602a836124a7565b9150611fe882612925565b604082019050919050565b60006120006029836124a7565b915061200b82612974565b604082019050919050565b60006120236020836124a7565b915061202e826129c3565b602082019050919050565b6000612046602c836124a7565b9150612051826129ec565b604082019050919050565b60006120696020836124a7565b915061207482612a3b565b602082019050919050565b600061208c6029836124a7565b915061209782612a64565b604082019050919050565b60006120af602f836124a7565b91506120ba82612ab3565b604082019050919050565b60006120d26021836124a7565b91506120dd82612b02565b604082019050919050565b60006120f56031836124a7565b915061210082612b51565b604082019050919050565b612114816125ac565b82525050565b600060208201905061212f6000830184611e28565b92915050565b600060808201905061214a6000830187611e28565b6121576020830186611e28565b612164604083018561210b565b81810360608301526121768184611e46565b905095945050505050565b60006020820190506121966000830184611e37565b92915050565b600060208201905081810360008301526121b68184611e7f565b905092915050565b600060208201905081810360008301526121d781611eb8565b9050919050565b600060208201905081810360008301526121f781611edb565b9050919050565b6000602082019050818103600083015261221781611efe565b9050919050565b6000602082019050818103600083015261223781611f21565b9050919050565b6000602082019050818103600083015261225781611f44565b9050919050565b6000602082019050818103600083015261227781611f67565b9050919050565b6000602082019050818103600083015261229781611f8a565b9050919050565b600060208201905081810360008301526122b781611fad565b9050919050565b600060208201905081810360008301526122d781611fd0565b9050919050565b600060208201905081810360008301526122f781611ff3565b9050919050565b6000602082019050818103600083015261231781612016565b9050919050565b6000602082019050818103600083015261233781612039565b9050919050565b600060208201905081810360008301526123578161205c565b9050919050565b600060208201905081810360008301526123778161207f565b9050919050565b60006020820190508181036000830152612397816120a2565b9050919050565b600060208201905081810360008301526123b7816120c5565b9050919050565b600060208201905081810360008301526123d7816120e8565b9050919050565b60006020820190506123f3600083018461210b565b92915050565b6000612403612414565b905061240f828261262a565b919050565b6000604051905090565b600067ffffffffffffffff821115612439576124386126b9565b5b612442826126e8565b9050602081019050919050565b600067ffffffffffffffff82111561246a576124696126b9565b5b612473826126e8565b9050602081019050919050565b600081519050919050565b600081519050919050565b600082825260208201905092915050565b600082825260208201905092915050565b60006124c3826125ac565b91506124ce836125ac565b9250827fffffffffffffffffffffffffffffffffffffffffffffffffffffffffffffffff038211156125035761250261265b565b5b828201905092915050565b6000612519826125ac565b9150612524836125ac565b9250828210156125375761253661265b565b5b828203905092915050565b600061254d8261258c565b9050919050565b60008115159050919050565b60007fffffffff0000000000000000000000000000000000000000000000000000000082169050919050565b600073ffffffffffffffffffffffffffffffffffffffff82169050919050565b6000819050919050565b82818337600083830152505050565b60005b838110156125e35780820151818401526020810190506125c8565b838111156125f2576000848401525b50505050565b6000600282049050600182168061261057607f821691505b602082108114156126245761262361268a565b5b50919050565b612633826126e8565b810181811067ffffffffffffffff82111715612652576126516126b9565b5b80604052505050565b7f4e487b7100000000000000000000000000000000000000000000000000000000600052601160045260246000fd5b7f4e487b7100000000000000000000000000000000000000000000000000000000600052602260045260246000fd5b7f4e487b7100000000000000000000000000000000000000000000000000000000600052604160045260246000fd5b6000601f19601f8301169050919050565b7f4552433732313a207472616e7366657220746f206e6f6e20455243373231526560008201527f63656976657220696d706c656d656e7465720000000000000000000000000000602082015250565b7f4f776e61626c653a206e6577206f776e657220697320746865207a65726f206160008201527f6464726573730000000000000000000000000000000000000000000000000000602082015250565b7f4552433732313a20746f6b656e20616c7265616479206d696e74656400000000600082015250565b7f4552433732314d657461646174613a204974656d20737461742071756572792060008201527f666f72206e6f6e6578697374656e7420746f6b656e0000000000000000000000602082015250565b7f4552433732313a207472616e7366657220746f20746865207a65726f2061646460008201527f7265737300000000000000000000000000000000000000000000000000000000602082015250565b7f4552433732313a20617070726f766520746f2063616c6c657200000000000000600082015250565b7f4552433732313a206f70657261746f7220717565727920666f72206e6f6e657860008201527f697374656e7420746f6b656e0000000000000000000000000000000000000000602082015250565b7f4552433732313a20617070726f76652063616c6c6572206973206e6f74206f7760008201527f6e6572206e6f7220617070726f76656420666f7220616c6c0000000000000000602082015250565b7f4552433732313a2062616c616e636520717565727920666f7220746865207a6560008201527f726f206164647265737300000000000000000000000000000000000000000000602082015250565b7f4552433732313a206f776e657220717565727920666f72206e6f6e657869737460008201527f656e7420746f6b656e0000000000000000000000000000000000000000000000602082015250565b7f4552433732313a206d696e7420746f20746865207a65726f2061646472657373600082015250565b7f4552433732313a20617070726f76656420717565727920666f72206e6f6e657860008201527f697374656e7420746f6b656e0000000000000000000000000000000000000000602082015250565b7f4f776e61626c653a2063616c6c6572206973206e6f7420746865206f776e6572600082015250565b7f4552433732313a207472616e73666572206f6620746f6b656e2074686174206960008201527f73206e6f74206f776e0000000000000000000000000000000000000000000000602082015250565b7f4552433732314d657461646174613a2055524920717565727920666f72206e6f60008201527f6e6578697374656e7420746f6b656e0000000000000000000000000000000000602082015250565b7f4552433732313a20617070726f76616c20746f2063757272656e74206f776e6560008201527f7200000000000000000000000000000000000000000000000000000000000000602082015250565b7f4552433732313a207472616e736665722063616c6c6572206973206e6f74206f60008201527f776e6572206e6f7220617070726f766564000000000000000000000000000000602082015250565b612ba981612542565b8114612bb457600080fd5b50565b612bc081612554565b8114612bcb57600080fd5b50565b612bd781612560565b8114612be257600080fd5b50565b612bee816125ac565b8114612bf957600080fd5b5056fea264697066735822122057325d1a4c3d387363e8858d3ed2679c034a1d24ce60c555c8593ddc6f6afe3864736f6c63430008040033",
  "linkReferences": {},
  "deployedLinkReferences": {}
}