{
  "_format": "hh-sol-artifact-1",
  "contractName": "STARNFT14",
  "sourceName": "contracts/STARNFT14.sol",
  "abi": [
    {
      "inputs": [
        {
          "internalType": "string",
          "name": "tokenName",
          "type": "string"
        },
        {
          "internalType": "string",
          "name": "symbol",
          "type": "string"
        }
      ],
      "stateMutability": "nonpayable",
      "type": "constructor"
    },
    {
      "anonymous": false,
      "inputs": [
        {
          "indexed": true,
          "internalType": "address",
          "name": "owner",
          "type": "address"
        },
        {
          "indexed": true,
          "internalType": "address",
          "name": "approved",
          "type": "address"
        },
        {
          "indexed": true,
          "internalType": "uint256",
          "name": "tokenId",
          "type": "uint256"
        }
      ],
      "name": "Approval",
      "type": "event"
    },
    {
      "anonymous": false,
      "inputs": [
        {
          "indexed": true,
          "internalType": "address",
          "name": "owner",
          "type": "address"
        },
        {
          "indexed": true,
          "internalType": "address",
          "name": "operator",
          "type": "address"
        },
        {
          "indexed": false,
          "internalType": "bool",
          "name": "approved",
          "type": "bool"
        }
      ],
      "name": "ApprovalForAll",
      "type": "event"
    },
    {
      "anonymous": false,
      "inputs": [
        {
          "indexed": true,
          "internalType": "address",
          "name": "previousOwner",
          "type": "address"
        },
        {
          "indexed": true,
          "internalType": "address",
          "name": "newOwner",
          "type": "address"
        }
      ],
      "name": "OwnershipTransferred",
      "type": "event"
    },
    {
      "anonymous": false,
      "inputs": [
        {
          "indexed": true,
          "internalType": "address",
          "name": "from",
          "type": "address"
        },
        {
          "indexed": true,
          "internalType": "address",
          "name": "to",
          "type": "address"
        },
        {
          "indexed": true,
          "internalType": "uint256",
          "name": "tokenId",
          "type": "uint256"
        }
      ],
      "name": "Transfer",
      "type": "event"
    },
    {
      "inputs": [
        {
          "internalType": "address",
          "name": "to",
          "type": "address"
        },
        {
          "internalType": "uint256",
          "name": "tokenId",
          "type": "uint256"
        }
      ],
      "name": "approve",
      "outputs": [],
      "stateMutability": "nonpayable",
      "type": "function"
    },
    {
      "inputs": [
        {
          "internalType": "address",
          "name": "owner",
          "type": "address"
        }
      ],
      "name": "balanceOf",
      "outputs": [
        {
          "internalType": "uint256",
          "name": "",
          "type": "uint256"
        }
      ],
      "stateMutability": "view",
      "type": "function"
    },
    {
      "inputs": [
        {
          "internalType": "uint256",
          "name": "tokenId",
          "type": "uint256"
        }
      ],
      "name": "getApproved",
      "outputs": [
        {
          "internalType": "address",
          "name": "",
          "type": "address"
        }
      ],
      "stateMutability": "view",
      "type": "function"
    },
    {
      "inputs": [],
      "name": "getCurrentTokenId",
      "outputs": [
        {
          "internalType": "uint256",
          "name": "",
          "type": "uint256"
        }
      ],
      "stateMutability": "view",
      "type": "function"
    },
    {
      "inputs": [
        {
          "internalType": "uint256",
          "name": "tokenId",
          "type": "uint256"
        }
      ],
      "name": "imageURI",
      "outputs": [
        {
          "internalType": "string",
          "name": "",
          "type": "string"
        }
      ],
      "stateMutability": "view",
      "type": "function"
    },
    {
      "inputs": [
        {
          "internalType": "address",
          "name": "owner",
          "type": "address"
        },
        {
          "internalType": "address",
          "name": "operator",
          "type": "address"
        }
      ],
      "name": "isApprovedForAll",
      "outputs": [
        {
          "internalType": "bool",
          "name": "",
          "type": "bool"
        }
      ],
      "stateMutability": "view",
      "type": "function"
    },
    {
      "inputs": [
        {
          "internalType": "address",
          "name": "_recipient",
          "type": "address"
        },
        {
          "internalType": "string",
          "name": "_uri",
          "type": "string"
        },
        {
          "internalType": "string",
          "name": "_uriimage",
          "type": "string"
        }
      ],
      "name": "mintToken",
      "outputs": [
        {
          "internalType": "uint256",
          "name": "",
          "type": "uint256"
        }
      ],
      "stateMutability": "nonpayable",
      "type": "function"
    },
    {
      "inputs": [],
      "name": "name",
      "outputs": [
        {
          "internalType": "string",
          "name": "",
          "type": "string"
        }
      ],
      "stateMutability": "view",
      "type": "function"
    },
    {
      "inputs": [],
      "name": "owner",
      "outputs": [
        {
          "internalType": "address",
          "name": "",
          "type": "address"
        }
      ],
      "stateMutability": "view",
      "type": "function"
    },
    {
      "inputs": [
        {
          "internalType": "uint256",
          "name": "tokenId",
          "type": "uint256"
        }
      ],
      "name": "ownerOf",
      "outputs": [
        {
          "internalType": "address",
          "name": "",
          "type": "address"
        }
      ],
      "stateMutability": "view",
      "type": "function"
    },
    {
      "inputs": [],
      "name": "renounceOwnership",
      "outputs": [],
      "stateMutability": "nonpayable",
      "type": "function"
    },
    {
      "inputs": [
        {
          "internalType": "address",
          "name": "from",
          "type": "address"
        },
        {
          "internalType": "address",
          "name": "to",
          "type": "address"
        },
        {
          "internalType": "uint256",
          "name": "tokenId",
          "type": "uint256"
        }
      ],
      "name": "safeTransferFrom",
      "outputs": [],
      "stateMutability": "nonpayable",
      "type": "function"
    },
    {
      "inputs": [
        {
          "internalType": "address",
          "name": "from",
          "type": "address"
        },
        {
          "internalType": "address",
          "name": "to",
          "type": "address"
        },
        {
          "internalType": "uint256",
          "name": "tokenId",
          "type": "uint256"
        },
        {
          "internalType": "bytes",
          "name": "_data",
          "type": "bytes"
        }
      ],
      "name": "safeTransferFrom",
      "outputs": [],
      "stateMutability": "nonpayable",
      "type": "function"
    },
    {
      "inputs": [
        {
          "internalType": "address",
          "name": "operator",
          "type": "address"
        },
        {
          "internalType": "bool",
          "name": "approved",
          "type": "bool"
        }
      ],
      "name": "setApprovalForAll",
      "outputs": [],
      "stateMutability": "nonpayable",
      "type": "function"
    },
    {
      "inputs": [
        {
          "internalType": "bytes4",
          "name": "interfaceId",
          "type": "bytes4"
        }
      ],
      "name": "supportsInterface",
      "outputs": [
        {
          "internalType": "bool",
          "name": "",
          "type": "bool"
        }
      ],
      "stateMutability": "view",
      "type": "function"
    },
    {
      "inputs": [],
      "name": "symbol",
      "outputs": [
        {
          "internalType": "string",
          "name": "",
          "type": "string"
        }
      ],
      "stateMutability": "view",
      "type": "function"
    },
    {
      "inputs": [
        {
          "internalType": "uint256",
          "name": "tokenId",
          "type": "uint256"
        }
      ],
      "name": "tokenItemStat",
      "outputs": [
        {
          "internalType": "string",
          "name": "",
          "type": "string"
        }
      ],
      "stateMutability": "view",
      "type": "function"
    },
    {
      "inputs": [
        {
          "internalType": "uint256",
          "name": "tokenId",
          "type": "uint256"
        }
      ],
      "name": "tokenURI",
      "outputs": [
        {
          "internalType": "string",
          "name": "",
          "type": "string"
        }
      ],
      "stateMutability": "view",
      "type": "function"
    },
    {
      "inputs": [
        {
          "internalType": "address",
          "name": "from",
          "type": "address"
        },
        {
          "internalType": "address",
          "name": "to",
          "type": "address"
        },
        {
          "internalType": "uint256",
          "name": "tokenId",
          "type": "uint256"
        }
      ],
      "name": "transferFrom",
      "outputs": [],
      "stateMutability": "nonpayable",
      "type": "function"
    },
    {
      "inputs": [
        {
          "internalType": "address",
          "name": "newOwner",
          "type": "address"
        }
      ],
      "name": "transferOwnership",
      "outputs": [],
      "stateMutability": "nonpayable",
      "type": "function"
    }
  ],
  "bytecode": "0x60806040523480156200001157600080fd5b506040516200323f3803806200323f833981810160405281019062000037919062000250565b81818160009080519060200190620000519291906200012e565b5080600190805190602001906200006a9291906200012e565b50505060006200007f6200012660201b60201c565b905080600660006101000a81548173ffffffffffffffffffffffffffffffffffffffff021916908373ffffffffffffffffffffffffffffffffffffffff1602179055508073ffffffffffffffffffffffffffffffffffffffff16600073ffffffffffffffffffffffffffffffffffffffff167f8be0079c531659141344cd1fd0a4f28419497f9722a3daafe3b4186f6b6457e060405160405180910390a350505062000433565b600033905090565b8280546200013c9062000358565b90600052602060002090601f016020900481019282620001605760008555620001ac565b82601f106200017b57805160ff1916838001178555620001ac565b82800160010185558215620001ac579182015b82811115620001ab5782518255916020019190600101906200018e565b5b509050620001bb9190620001bf565b5090565b5b80821115620001da576000816000905550600101620001c0565b5090565b6000620001f5620001ef84620002ec565b620002c3565b9050828152602081018484840111156200020e57600080fd5b6200021b84828562000322565b509392505050565b600082601f8301126200023557600080fd5b815162000247848260208601620001de565b91505092915050565b600080604083850312156200026457600080fd5b600083015167ffffffffffffffff8111156200027f57600080fd5b6200028d8582860162000223565b925050602083015167ffffffffffffffff811115620002ab57600080fd5b620002b98582860162000223565b9150509250929050565b6000620002cf620002e2565b9050620002dd82826200038e565b919050565b6000604051905090565b600067ffffffffffffffff8211156200030a5762000309620003f3565b5b620003158262000422565b9050602081019050919050565b60005b838110156200034257808201518184015260208101905062000325565b8381111562000352576000848401525b50505050565b600060028204905060018216806200037157607f821691505b60208210811415620003885762000387620003c4565b5b50919050565b620003998262000422565b810181811067ffffffffffffffff82111715620003bb57620003ba620003f3565b5b80604052505050565b7f4e487b7100000000000000000000000000000000000000000000000000000000600052602260045260246000fd5b7f4e487b7100000000000000000000000000000000000000000000000000000000600052604160045260246000fd5b6000601f19601f8301169050919050565b612dfc80620004436000396000f3fe608060405234801561001057600080fd5b506004361061012c5760003560e01c806370a08231116100ad578063a22cb46511610071578063a22cb46514610357578063b88d4fde14610373578063c87b56dd1461038f578063e985e9c5146103bf578063f2fde38b146103ef5761012c565b806370a08231146102b1578063715018a6146102e15780638da5cb5b146102eb5780638f742d161461030957806395d89b41146103395761012c565b80632e689c3f116100f45780632e689c3f146101e75780633385e5181461021757806342842e0e1461024757806356189236146102635780636352211e146102815761012c565b806301ffc9a71461013157806306fdde0314610161578063081812fc1461017f578063095ea7b3146101af57806323b872dd146101cb575b600080fd5b61014b60048036038101906101469190611f77565b61040b565b604051610158919061234b565b60405180910390f35b6101696104ed565b6040516101769190612366565b60405180910390f35b61019960048036038101906101949190611fc9565b61057f565b6040516101a691906122e4565b60405180910390f35b6101c960048036038101906101c49190611f3b565b610604565b005b6101e560048036038101906101e09190611db6565b61071c565b005b61020160048036038101906101fc9190611ebc565b61077c565b60405161020e91906125a8565b60405180910390f35b610231600480360381019061022c9190611fc9565b6107bf565b60405161023e9190612366565b60405180910390f35b610261600480360381019061025c9190611db6565b6108b2565b005b61026b6108d2565b60405161027891906125a8565b60405180910390f35b61029b60048036038101906102969190611fc9565b6108e3565b6040516102a891906122e4565b60405180910390f35b6102cb60048036038101906102c69190611d51565b610995565b6040516102d891906125a8565b60405180910390f35b6102e9610a4d565b005b6102f3610b8a565b60405161030091906122e4565b60405180910390f35b610323600480360381019061031e9190611fc9565b610bb4565b6040516103309190612366565b60405180910390f35b610341610ca7565b60405161034e9190612366565b60405180910390f35b610371600480360381019061036c9190611e80565b610d39565b005b61038d60048036038101906103889190611e05565b610eba565b005b6103a960048036038101906103a49190611fc9565b610f1c565b6040516103b69190612366565b60405180910390f35b6103d960048036038101906103d49190611d7a565b61100f565b6040516103e6919061234b565b60405180910390f35b61040960048036038101906104049190611d51565b6110a3565b005b60007f80ac58cd000000000000000000000000000000000000000000000000000000007bffffffffffffffffffffffffffffffffffffffffffffffffffffffff1916827bffffffffffffffffffffffffffffffffffffffffffffffffffffffff191614806104d657507f5b5e139f000000000000000000000000000000000000000000000000000000007bffffffffffffffffffffffffffffffffffffffffffffffffffffffff1916827bffffffffffffffffffffffffffffffffffffffffffffffffffffffff1916145b806104e657506104e58261124f565b5b9050919050565b6060600080546104fc906127c2565b80601f0160208091040260200160405190810160405280929190818152602001828054610528906127c2565b80156105755780601f1061054a57610100808354040283529160200191610575565b820191906000526020600020905b81548152906001019060200180831161055857829003601f168201915b5050505050905090565b600061058a826112b9565b6105c9576040517f08c379a00000000000000000000000000000000000000000000000000000000081526004016105c0906124e8565b60405180910390fd5b6004600083815260200190815260200160002060009054906101000a900473ffffffffffffffffffffffffffffffffffffffff169050919050565b600061060f826108e3565b90508073ffffffffffffffffffffffffffffffffffffffff168373ffffffffffffffffffffffffffffffffffffffff161415610680576040517f08c379a000000000000000000000000000000000000000000000000000000000815260040161067790612568565b60405180910390fd5b8073ffffffffffffffffffffffffffffffffffffffff1661069f611325565b73ffffffffffffffffffffffffffffffffffffffff1614806106ce57506106cd816106c8611325565b61100f565b5b61070d576040517f08c379a000000000000000000000000000000000000000000000000000000000815260040161070490612468565b60405180910390fd5b610717838361132d565b505050565b61072d610727611325565b826113e6565b61076c576040517f08c379a000000000000000000000000000000000000000000000000000000000815260040161076390612588565b60405180910390fd5b6107778383836114c4565b505050565b60006107886007611720565b60006107946007611736565b90506107a08582611744565b6107aa8185611912565b6107b4818461193e565b809150509392505050565b60606107ca826112b9565b610809576040517f08c379a0000000000000000000000000000000000000000000000000000000008152600401610800906123e8565b60405180910390fd5b6000600a60008481526020019081526020016000208054610829906127c2565b80601f0160208091040260200160405190810160405280929190818152602001828054610855906127c2565b80156108a25780601f10610877576101008083540402835291602001916108a2565b820191906000526020600020905b81548152906001019060200180831161088557829003601f168201915b5050505050905080915050919050565b6108cd83838360405180602001604052806000815250610eba565b505050565b60006108de6007611736565b905090565b6000806002600084815260200190815260200160002060009054906101000a900473ffffffffffffffffffffffffffffffffffffffff169050600073ffffffffffffffffffffffffffffffffffffffff168173ffffffffffffffffffffffffffffffffffffffff16141561098c576040517f08c379a0000000000000000000000000000000000000000000000000000000008152600401610983906124a8565b60405180910390fd5b80915050919050565b60008073ffffffffffffffffffffffffffffffffffffffff168273ffffffffffffffffffffffffffffffffffffffff161415610a06576040517f08c379a00000000000000000000000000000000000000000000000000000000081526004016109fd90612488565b60405180910390fd5b600360008373ffffffffffffffffffffffffffffffffffffffff1673ffffffffffffffffffffffffffffffffffffffff168152602001908152602001600020549050919050565b610a55611325565b73ffffffffffffffffffffffffffffffffffffffff16610a73610b8a565b73ffffffffffffffffffffffffffffffffffffffff1614610ac9576040517f08c379a0000000000000000000000000000000000000000000000000000000008152600401610ac090612508565b60405180910390fd5b600073ffffffffffffffffffffffffffffffffffffffff16600660009054906101000a900473ffffffffffffffffffffffffffffffffffffffff1673ffffffffffffffffffffffffffffffffffffffff167f8be0079c531659141344cd1fd0a4f28419497f9722a3daafe3b4186f6b6457e060405160405180910390a36000600660006101000a81548173ffffffffffffffffffffffffffffffffffffffff021916908373ffffffffffffffffffffffffffffffffffffffff160217905550565b6000600660009054906101000a900473ffffffffffffffffffffffffffffffffffffffff16905090565b6060610bbf826112b9565b610bfe576040517f08c379a0000000000000000000000000000000000000000000000000000000008152600401610bf590612548565b60405180910390fd5b6000600960008481526020019081526020016000208054610c1e906127c2565b80601f0160208091040260200160405190810160405280929190818152602001828054610c4a906127c2565b8015610c975780601f10610c6c57610100808354040283529160200191610c97565b820191906000526020600020905b815481529060010190602001808311610c7a57829003601f168201915b5050505050905080915050919050565b606060018054610cb6906127c2565b80601f0160208091040260200160405190810160405280929190818152602001828054610ce2906127c2565b8015610d2f5780601f10610d0457610100808354040283529160200191610d2f565b820191906000526020600020905b815481529060010190602001808311610d1257829003601f168201915b5050505050905090565b610d41611325565b73ffffffffffffffffffffffffffffffffffffffff168273ffffffffffffffffffffffffffffffffffffffff161415610daf576040517f08c379a0000000000000000000000000000000000000000000000000000000008152600401610da690612428565b60405180910390fd5b8060056000610dbc611325565b73ffffffffffffffffffffffffffffffffffffffff1673ffffffffffffffffffffffffffffffffffffffff16815260200190815260200160002060008473ffffffffffffffffffffffffffffffffffffffff1673ffffffffffffffffffffffffffffffffffffffff16815260200190815260200160002060006101000a81548160ff0219169083151502179055508173ffffffffffffffffffffffffffffffffffffffff16610e69611325565b73ffffffffffffffffffffffffffffffffffffffff167f17307eab39ab6107e8899845ad3d59bd9653f200f220920489ca2b5937696c3183604051610eae919061234b565b60405180910390a35050565b610ecb610ec5611325565b836113e6565b610f0a576040517f08c379a0000000000000000000000000000000000000000000000000000000008152600401610f0190612588565b60405180910390fd5b610f168484848461196a565b50505050565b6060610f27826112b9565b610f66576040517f08c379a0000000000000000000000000000000000000000000000000000000008152600401610f5d90612548565b60405180910390fd5b6000600860008481526020019081526020016000208054610f86906127c2565b80601f0160208091040260200160405190810160405280929190818152602001828054610fb2906127c2565b8015610fff5780601f10610fd457610100808354040283529160200191610fff565b820191906000526020600020905b815481529060010190602001808311610fe257829003601f168201915b5050505050905080915050919050565b6000600560008473ffffffffffffffffffffffffffffffffffffffff1673ffffffffffffffffffffffffffffffffffffffff16815260200190815260200160002060008373ffffffffffffffffffffffffffffffffffffffff1673ffffffffffffffffffffffffffffffffffffffff16815260200190815260200160002060009054906101000a900460ff16905092915050565b6110ab611325565b73ffffffffffffffffffffffffffffffffffffffff166110c9610b8a565b73ffffffffffffffffffffffffffffffffffffffff161461111f576040517f08c379a000000000000000000000000000000000000000000000000000000000815260040161111690612508565b60405180910390fd5b600073ffffffffffffffffffffffffffffffffffffffff168173ffffffffffffffffffffffffffffffffffffffff16141561118f576040517f08c379a0000000000000000000000000000000000000000000000000000000008152600401611186906123a8565b60405180910390fd5b8073ffffffffffffffffffffffffffffffffffffffff16600660009054906101000a900473ffffffffffffffffffffffffffffffffffffffff1673ffffffffffffffffffffffffffffffffffffffff167f8be0079c531659141344cd1fd0a4f28419497f9722a3daafe3b4186f6b6457e060405160405180910390a380600660006101000a81548173ffffffffffffffffffffffffffffffffffffffff021916908373ffffffffffffffffffffffffffffffffffffffff16021790555050565b60007f01ffc9a7000000000000000000000000000000000000000000000000000000007bffffffffffffffffffffffffffffffffffffffffffffffffffffffff1916827bffffffffffffffffffffffffffffffffffffffffffffffffffffffff1916149050919050565b60008073ffffffffffffffffffffffffffffffffffffffff166002600084815260200190815260200160002060009054906101000a900473ffffffffffffffffffffffffffffffffffffffff1673ffffffffffffffffffffffffffffffffffffffff1614159050919050565b600033905090565b816004600083815260200190815260200160002060006101000a81548173ffffffffffffffffffffffffffffffffffffffff021916908373ffffffffffffffffffffffffffffffffffffffff160217905550808273ffffffffffffffffffffffffffffffffffffffff166113a0836108e3565b73ffffffffffffffffffffffffffffffffffffffff167f8c5be1e5ebec7d5bd14f71427d1e84f3dd0314c0f7b2291e5b200ac8c7c3b92560405160405180910390a45050565b60006113f1826112b9565b611430576040517f08c379a000000000000000000000000000000000000000000000000000000000815260040161142790612448565b60405180910390fd5b600061143b836108e3565b90508073ffffffffffffffffffffffffffffffffffffffff168473ffffffffffffffffffffffffffffffffffffffff1614806114aa57508373ffffffffffffffffffffffffffffffffffffffff166114928461057f565b73ffffffffffffffffffffffffffffffffffffffff16145b806114bb57506114ba818561100f565b5b91505092915050565b8273ffffffffffffffffffffffffffffffffffffffff166114e4826108e3565b73ffffffffffffffffffffffffffffffffffffffff161461153a576040517f08c379a000000000000000000000000000000000000000000000000000000000815260040161153190612528565b60405180910390fd5b600073ffffffffffffffffffffffffffffffffffffffff168273ffffffffffffffffffffffffffffffffffffffff1614156115aa576040517f08c379a00000000000000000000000000000000000000000000000000000000081526004016115a190612408565b60405180910390fd5b6115b58383836119c6565b6115c060008261132d565b6001600360008573ffffffffffffffffffffffffffffffffffffffff1673ffffffffffffffffffffffffffffffffffffffff168152602001908152602001600020600082825461161091906126d8565b925050819055506001600360008473ffffffffffffffffffffffffffffffffffffffff1673ffffffffffffffffffffffffffffffffffffffff16815260200190815260200160002060008282546116679190612682565b92505081905550816002600083815260200190815260200160002060006101000a81548173ffffffffffffffffffffffffffffffffffffffff021916908373ffffffffffffffffffffffffffffffffffffffff160217905550808273ffffffffffffffffffffffffffffffffffffffff168473ffffffffffffffffffffffffffffffffffffffff167fddf252ad1be2c89b69c2b068fc378daa952ba7f163c4a11628f55a4df523b3ef60405160405180910390a4505050565b6001816000016000828254019250508190555050565b600081600001549050919050565b600073ffffffffffffffffffffffffffffffffffffffff168273ffffffffffffffffffffffffffffffffffffffff1614156117b4576040517f08c379a00000000000000000000000000000000000000000000000000000000081526004016117ab906124c8565b60405180910390fd5b6117bd816112b9565b156117fd576040517f08c379a00000000000000000000000000000000000000000000000000000000081526004016117f4906123c8565b60405180910390fd5b611809600083836119c6565b6001600360008473ffffffffffffffffffffffffffffffffffffffff1673ffffffffffffffffffffffffffffffffffffffff16815260200190815260200160002060008282546118599190612682565b92505081905550816002600083815260200190815260200160002060006101000a81548173ffffffffffffffffffffffffffffffffffffffff021916908373ffffffffffffffffffffffffffffffffffffffff160217905550808273ffffffffffffffffffffffffffffffffffffffff16600073ffffffffffffffffffffffffffffffffffffffff167fddf252ad1be2c89b69c2b068fc378daa952ba7f163c4a11628f55a4df523b3ef60405160405180910390a45050565b80600860008481526020019081526020016000209080519060200190611939929190611b75565b505050565b80600960008481526020019081526020016000209080519060200190611965929190611b75565b505050565b6119758484846114c4565b611981848484846119cb565b6119c0576040517f08c379a00000000000000000000000000000000000000000000000000000000081526004016119b790612388565b60405180910390fd5b50505050565b505050565b60006119ec8473ffffffffffffffffffffffffffffffffffffffff16611b62565b15611b55578373ffffffffffffffffffffffffffffffffffffffff1663150b7a02611a15611325565b8786866040518563ffffffff1660e01b8152600401611a3794939291906122ff565b602060405180830381600087803b158015611a5157600080fd5b505af1925050508015611a8257506040513d601f19601f82011682018060405250810190611a7f9190611fa0565b60015b611b05573d8060008114611ab2576040519150601f19603f3d011682016040523d82523d6000602084013e611ab7565b606091505b50600081511415611afd576040517f08c379a0000000000000000000000000000000000000000000000000000000008152600401611af490612388565b60405180910390fd5b805181602001fd5b63150b7a0260e01b7bffffffffffffffffffffffffffffffffffffffffffffffffffffffff1916817bffffffffffffffffffffffffffffffffffffffffffffffffffffffff191614915050611b5a565b600190505b949350505050565b600080823b905060008111915050919050565b828054611b81906127c2565b90600052602060002090601f016020900481019282611ba35760008555611bea565b82601f10611bbc57805160ff1916838001178555611bea565b82800160010185558215611bea579182015b82811115611be9578251825591602001919060010190611bce565b5b509050611bf79190611bfb565b5090565b5b80821115611c14576000816000905550600101611bfc565b5090565b6000611c2b611c26846125e8565b6125c3565b905082815260208101848484011115611c4357600080fd5b611c4e848285612780565b509392505050565b6000611c69611c6484612619565b6125c3565b905082815260208101848484011115611c8157600080fd5b611c8c848285612780565b509392505050565b600081359050611ca381612d6a565b92915050565b600081359050611cb881612d81565b92915050565b600081359050611ccd81612d98565b92915050565b600081519050611ce281612d98565b92915050565b600082601f830112611cf957600080fd5b8135611d09848260208601611c18565b91505092915050565b600082601f830112611d2357600080fd5b8135611d33848260208601611c56565b91505092915050565b600081359050611d4b81612daf565b92915050565b600060208284031215611d6357600080fd5b6000611d7184828501611c94565b91505092915050565b60008060408385031215611d8d57600080fd5b6000611d9b85828601611c94565b9250506020611dac85828601611c94565b9150509250929050565b600080600060608486031215611dcb57600080fd5b6000611dd986828701611c94565b9350506020611dea86828701611c94565b9250506040611dfb86828701611d3c565b9150509250925092565b60008060008060808587031215611e1b57600080fd5b6000611e2987828801611c94565b9450506020611e3a87828801611c94565b9350506040611e4b87828801611d3c565b925050606085013567ffffffffffffffff811115611e6857600080fd5b611e7487828801611ce8565b91505092959194509250565b60008060408385031215611e9357600080fd5b6000611ea185828601611c94565b9250506020611eb285828601611ca9565b9150509250929050565b600080600060608486031215611ed157600080fd5b6000611edf86828701611c94565b935050602084013567ffffffffffffffff811115611efc57600080fd5b611f0886828701611d12565b925050604084013567ffffffffffffffff811115611f2557600080fd5b611f3186828701611d12565b9150509250925092565b60008060408385031215611f4e57600080fd5b6000611f5c85828601611c94565b9250506020611f6d85828601611d3c565b9150509250929050565b600060208284031215611f8957600080fd5b6000611f9784828501611cbe565b91505092915050565b600060208284031215611fb257600080fd5b6000611fc084828501611cd3565b91505092915050565b600060208284031215611fdb57600080fd5b6000611fe984828501611d3c565b91505092915050565b611ffb8161270c565b82525050565b61200a8161271e565b82525050565b600061201b8261264a565b6120258185612660565b935061203581856020860161278f565b61203e816128b2565b840191505092915050565b600061205482612655565b61205e8185612671565b935061206e81856020860161278f565b612077816128b2565b840191505092915050565b600061208f603283612671565b915061209a826128c3565b604082019050919050565b60006120b2602683612671565b91506120bd82612912565b604082019050919050565b60006120d5601c83612671565b91506120e082612961565b602082019050919050565b60006120f8603583612671565b91506121038261298a565b604082019050919050565b600061211b602483612671565b9150612126826129d9565b604082019050919050565b600061213e601983612671565b915061214982612a28565b602082019050919050565b6000612161602c83612671565b915061216c82612a51565b604082019050919050565b6000612184603883612671565b915061218f82612aa0565b604082019050919050565b60006121a7602a83612671565b91506121b282612aef565b604082019050919050565b60006121ca602983612671565b91506121d582612b3e565b604082019050919050565b60006121ed602083612671565b91506121f882612b8d565b602082019050919050565b6000612210602c83612671565b915061221b82612bb6565b604082019050919050565b6000612233602083612671565b915061223e82612c05565b602082019050919050565b6000612256602983612671565b915061226182612c2e565b604082019050919050565b6000612279602f83612671565b915061228482612c7d565b604082019050919050565b600061229c602183612671565b91506122a782612ccc565b604082019050919050565b60006122bf603183612671565b91506122ca82612d1b565b604082019050919050565b6122de81612776565b82525050565b60006020820190506122f96000830184611ff2565b92915050565b60006080820190506123146000830187611ff2565b6123216020830186611ff2565b61232e60408301856122d5565b81810360608301526123408184612010565b905095945050505050565b60006020820190506123606000830184612001565b92915050565b600060208201905081810360008301526123808184612049565b905092915050565b600060208201905081810360008301526123a181612082565b9050919050565b600060208201905081810360008301526123c1816120a5565b9050919050565b600060208201905081810360008301526123e1816120c8565b9050919050565b60006020820190508181036000830152612401816120eb565b9050919050565b600060208201905081810360008301526124218161210e565b9050919050565b6000602082019050818103600083015261244181612131565b9050919050565b6000602082019050818103600083015261246181612154565b9050919050565b6000602082019050818103600083015261248181612177565b9050919050565b600060208201905081810360008301526124a18161219a565b9050919050565b600060208201905081810360008301526124c1816121bd565b9050919050565b600060208201905081810360008301526124e1816121e0565b9050919050565b6000602082019050818103600083015261250181612203565b9050919050565b6000602082019050818103600083015261252181612226565b9050919050565b6000602082019050818103600083015261254181612249565b9050919050565b600060208201905081810360008301526125618161226c565b9050919050565b600060208201905081810360008301526125818161228f565b9050919050565b600060208201905081810360008301526125a1816122b2565b9050919050565b60006020820190506125bd60008301846122d5565b92915050565b60006125cd6125de565b90506125d982826127f4565b919050565b6000604051905090565b600067ffffffffffffffff82111561260357612602612883565b5b61260c826128b2565b9050602081019050919050565b600067ffffffffffffffff82111561263457612633612883565b5b61263d826128b2565b9050602081019050919050565b600081519050919050565b600081519050919050565b600082825260208201905092915050565b600082825260208201905092915050565b600061268d82612776565b915061269883612776565b9250827fffffffffffffffffffffffffffffffffffffffffffffffffffffffffffffffff038211156126cd576126cc612825565b5b828201905092915050565b60006126e382612776565b91506126ee83612776565b92508282101561270157612700612825565b5b828203905092915050565b600061271782612756565b9050919050565b60008115159050919050565b60007fffffffff0000000000000000000000000000000000000000000000000000000082169050919050565b600073ffffffffffffffffffffffffffffffffffffffff82169050919050565b6000819050919050565b82818337600083830152505050565b60005b838110156127ad578082015181840152602081019050612792565b838111156127bc576000848401525b50505050565b600060028204905060018216806127da57607f821691505b602082108114156127ee576127ed612854565b5b50919050565b6127fd826128b2565b810181811067ffffffffffffffff8211171561281c5761281b612883565b5b80604052505050565b7f4e487b7100000000000000000000000000000000000000000000000000000000600052601160045260246000fd5b7f4e487b7100000000000000000000000000000000000000000000000000000000600052602260045260246000fd5b7f4e487b7100000000000000000000000000000000000000000000000000000000600052604160045260246000fd5b6000601f19601f8301169050919050565b7f4552433732313a207472616e7366657220746f206e6f6e20455243373231526560008201527f63656976657220696d706c656d656e7465720000000000000000000000000000602082015250565b7f4f776e61626c653a206e6577206f776e657220697320746865207a65726f206160008201527f6464726573730000000000000000000000000000000000000000000000000000602082015250565b7f4552433732313a20746f6b656e20616c7265616479206d696e74656400000000600082015250565b7f4552433732314d657461646174613a204974656d20737461742071756572792060008201527f666f72206e6f6e6578697374656e7420746f6b656e0000000000000000000000602082015250565b7f4552433732313a207472616e7366657220746f20746865207a65726f2061646460008201527f7265737300000000000000000000000000000000000000000000000000000000602082015250565b7f4552433732313a20617070726f766520746f2063616c6c657200000000000000600082015250565b7f4552433732313a206f70657261746f7220717565727920666f72206e6f6e657860008201527f697374656e7420746f6b656e0000000000000000000000000000000000000000602082015250565b7f4552433732313a20617070726f76652063616c6c6572206973206e6f74206f7760008201527f6e6572206e6f7220617070726f76656420666f7220616c6c0000000000000000602082015250565b7f4552433732313a2062616c616e636520717565727920666f7220746865207a6560008201527f726f206164647265737300000000000000000000000000000000000000000000602082015250565b7f4552433732313a206f776e657220717565727920666f72206e6f6e657869737460008201527f656e7420746f6b656e0000000000000000000000000000000000000000000000602082015250565b7f4552433732313a206d696e7420746f20746865207a65726f2061646472657373600082015250565b7f4552433732313a20617070726f76656420717565727920666f72206e6f6e657860008201527f697374656e7420746f6b656e0000000000000000000000000000000000000000602082015250565b7f4f776e61626c653a2063616c6c6572206973206e6f7420746865206f776e6572600082015250565b7f4552433732313a207472616e73666572206f6620746f6b656e2074686174206960008201527f73206e6f74206f776e0000000000000000000000000000000000000000000000602082015250565b7f4552433732314d657461646174613a2055524920717565727920666f72206e6f60008201527f6e6578697374656e7420746f6b656e0000000000000000000000000000000000602082015250565b7f4552433732313a20617070726f76616c20746f2063757272656e74206f776e6560008201527f7200000000000000000000000000000000000000000000000000000000000000602082015250565b7f4552433732313a207472616e736665722063616c6c6572206973206e6f74206f60008201527f776e6572206e6f7220617070726f766564000000000000000000000000000000602082015250565b612d738161270c565b8114612d7e57600080fd5b50565b612d8a8161271e565b8114612d9557600080fd5b50565b612da18161272a565b8114612dac57600080fd5b50565b612db881612776565b8114612dc357600080fd5b5056fea26469706673582212200c03a7f4c343be662bd7ef6703237b993d0e42094af951721e976b612539777464736f6c63430008040033",
  "linkReferences": {},
  "deployedLinkReferences": {}
}