{
  "_format": "hh-sol-artifact-1",
  "contractName": "STARNFT12",
  "sourceName": "contracts/STARNFT12.sol",
  "abi": [
    {
      "inputs": [
        {
          "internalType": "string",
          "name": "tokenName",
          "type": "string"
        },
        {
          "internalType": "string",
          "name": "symbol",
          "type": "string"
        }
      ],
      "stateMutability": "nonpayable",
      "type": "constructor"
    },
    {
      "anonymous": false,
      "inputs": [
        {
          "indexed": true,
          "internalType": "address",
          "name": "owner",
          "type": "address"
        },
        {
          "indexed": true,
          "internalType": "address",
          "name": "approved",
          "type": "address"
        },
        {
          "indexed": true,
          "internalType": "uint256",
          "name": "tokenId",
          "type": "uint256"
        }
      ],
      "name": "Approval",
      "type": "event"
    },
    {
      "anonymous": false,
      "inputs": [
        {
          "indexed": true,
          "internalType": "address",
          "name": "owner",
          "type": "address"
        },
        {
          "indexed": true,
          "internalType": "address",
          "name": "operator",
          "type": "address"
        },
        {
          "indexed": false,
          "internalType": "bool",
          "name": "approved",
          "type": "bool"
        }
      ],
      "name": "ApprovalForAll",
      "type": "event"
    },
    {
      "anonymous": false,
      "inputs": [
        {
          "indexed": true,
          "internalType": "address",
          "name": "previousOwner",
          "type": "address"
        },
        {
          "indexed": true,
          "internalType": "address",
          "name": "newOwner",
          "type": "address"
        }
      ],
      "name": "OwnershipTransferred",
      "type": "event"
    },
    {
      "anonymous": false,
      "inputs": [
        {
          "indexed": true,
          "internalType": "address",
          "name": "from",
          "type": "address"
        },
        {
          "indexed": true,
          "internalType": "address",
          "name": "to",
          "type": "address"
        },
        {
          "indexed": true,
          "internalType": "uint256",
          "name": "tokenId",
          "type": "uint256"
        }
      ],
      "name": "Transfer",
      "type": "event"
    },
    {
      "inputs": [
        {
          "internalType": "address",
          "name": "to",
          "type": "address"
        },
        {
          "internalType": "uint256",
          "name": "tokenId",
          "type": "uint256"
        }
      ],
      "name": "approve",
      "outputs": [],
      "stateMutability": "nonpayable",
      "type": "function"
    },
    {
      "inputs": [
        {
          "internalType": "address",
          "name": "owner",
          "type": "address"
        }
      ],
      "name": "balanceOf",
      "outputs": [
        {
          "internalType": "uint256",
          "name": "",
          "type": "uint256"
        }
      ],
      "stateMutability": "view",
      "type": "function"
    },
    {
      "inputs": [
        {
          "internalType": "uint256",
          "name": "tokenId",
          "type": "uint256"
        }
      ],
      "name": "getApproved",
      "outputs": [
        {
          "internalType": "address",
          "name": "",
          "type": "address"
        }
      ],
      "stateMutability": "view",
      "type": "function"
    },
    {
      "inputs": [],
      "name": "getCurrentTokenId",
      "outputs": [
        {
          "internalType": "uint256",
          "name": "",
          "type": "uint256"
        }
      ],
      "stateMutability": "view",
      "type": "function"
    },
    {
      "inputs": [
        {
          "internalType": "address",
          "name": "owner",
          "type": "address"
        },
        {
          "internalType": "address",
          "name": "operator",
          "type": "address"
        }
      ],
      "name": "isApprovedForAll",
      "outputs": [
        {
          "internalType": "bool",
          "name": "",
          "type": "bool"
        }
      ],
      "stateMutability": "view",
      "type": "function"
    },
    {
      "inputs": [
        {
          "internalType": "address",
          "name": "_recipient",
          "type": "address"
        },
        {
          "internalType": "string",
          "name": "_uri",
          "type": "string"
        }
      ],
      "name": "mintToken",
      "outputs": [
        {
          "internalType": "uint256",
          "name": "",
          "type": "uint256"
        }
      ],
      "stateMutability": "nonpayable",
      "type": "function"
    },
    {
      "inputs": [],
      "name": "name",
      "outputs": [
        {
          "internalType": "string",
          "name": "",
          "type": "string"
        }
      ],
      "stateMutability": "view",
      "type": "function"
    },
    {
      "inputs": [],
      "name": "owner",
      "outputs": [
        {
          "internalType": "address",
          "name": "",
          "type": "address"
        }
      ],
      "stateMutability": "view",
      "type": "function"
    },
    {
      "inputs": [
        {
          "internalType": "uint256",
          "name": "tokenId",
          "type": "uint256"
        }
      ],
      "name": "ownerOf",
      "outputs": [
        {
          "internalType": "address",
          "name": "",
          "type": "address"
        }
      ],
      "stateMutability": "view",
      "type": "function"
    },
    {
      "inputs": [],
      "name": "renounceOwnership",
      "outputs": [],
      "stateMutability": "nonpayable",
      "type": "function"
    },
    {
      "inputs": [
        {
          "internalType": "address",
          "name": "from",
          "type": "address"
        },
        {
          "internalType": "address",
          "name": "to",
          "type": "address"
        },
        {
          "internalType": "uint256",
          "name": "tokenId",
          "type": "uint256"
        }
      ],
      "name": "safeTransferFrom",
      "outputs": [],
      "stateMutability": "nonpayable",
      "type": "function"
    },
    {
      "inputs": [
        {
          "internalType": "address",
          "name": "from",
          "type": "address"
        },
        {
          "internalType": "address",
          "name": "to",
          "type": "address"
        },
        {
          "internalType": "uint256",
          "name": "tokenId",
          "type": "uint256"
        },
        {
          "internalType": "bytes",
          "name": "_data",
          "type": "bytes"
        }
      ],
      "name": "safeTransferFrom",
      "outputs": [],
      "stateMutability": "nonpayable",
      "type": "function"
    },
    {
      "inputs": [
        {
          "internalType": "address",
          "name": "operator",
          "type": "address"
        },
        {
          "internalType": "bool",
          "name": "approved",
          "type": "bool"
        }
      ],
      "name": "setApprovalForAll",
      "outputs": [],
      "stateMutability": "nonpayable",
      "type": "function"
    },
    {
      "inputs": [
        {
          "internalType": "bytes4",
          "name": "interfaceId",
          "type": "bytes4"
        }
      ],
      "name": "supportsInterface",
      "outputs": [
        {
          "internalType": "bool",
          "name": "",
          "type": "bool"
        }
      ],
      "stateMutability": "view",
      "type": "function"
    },
    {
      "inputs": [],
      "name": "symbol",
      "outputs": [
        {
          "internalType": "string",
          "name": "",
          "type": "string"
        }
      ],
      "stateMutability": "view",
      "type": "function"
    },
    {
      "inputs": [
        {
          "internalType": "uint256",
          "name": "tokenId",
          "type": "uint256"
        }
      ],
      "name": "tokenItemStat",
      "outputs": [
        {
          "internalType": "string",
          "name": "",
          "type": "string"
        }
      ],
      "stateMutability": "view",
      "type": "function"
    },
    {
      "inputs": [
        {
          "internalType": "uint256",
          "name": "tokenId",
          "type": "uint256"
        }
      ],
      "name": "tokenURI",
      "outputs": [
        {
          "internalType": "string",
          "name": "",
          "type": "string"
        }
      ],
      "stateMutability": "view",
      "type": "function"
    },
    {
      "inputs": [
        {
          "internalType": "address",
          "name": "from",
          "type": "address"
        },
        {
          "internalType": "address",
          "name": "to",
          "type": "address"
        },
        {
          "internalType": "uint256",
          "name": "tokenId",
          "type": "uint256"
        }
      ],
      "name": "transferFrom",
      "outputs": [],
      "stateMutability": "nonpayable",
      "type": "function"
    },
    {
      "inputs": [
        {
          "internalType": "address",
          "name": "newOwner",
          "type": "address"
        }
      ],
      "name": "transferOwnership",
      "outputs": [],
      "stateMutability": "nonpayable",
      "type": "function"
    }
  ],
  "bytecode": "0x60806040523480156200001157600080fd5b50604051620030af380380620030af833981810160405281019062000037919062000250565b81818160009080519060200190620000519291906200012e565b5080600190805190602001906200006a9291906200012e565b50505060006200007f6200012660201b60201c565b905080600660006101000a81548173ffffffffffffffffffffffffffffffffffffffff021916908373ffffffffffffffffffffffffffffffffffffffff1602179055508073ffffffffffffffffffffffffffffffffffffffff16600073ffffffffffffffffffffffffffffffffffffffff167f8be0079c531659141344cd1fd0a4f28419497f9722a3daafe3b4186f6b6457e060405160405180910390a350505062000433565b600033905090565b8280546200013c9062000358565b90600052602060002090601f016020900481019282620001605760008555620001ac565b82601f106200017b57805160ff1916838001178555620001ac565b82800160010185558215620001ac579182015b82811115620001ab5782518255916020019190600101906200018e565b5b509050620001bb9190620001bf565b5090565b5b80821115620001da576000816000905550600101620001c0565b5090565b6000620001f5620001ef84620002ec565b620002c3565b9050828152602081018484840111156200020e57600080fd5b6200021b84828562000322565b509392505050565b600082601f8301126200023557600080fd5b815162000247848260208601620001de565b91505092915050565b600080604083850312156200026457600080fd5b600083015167ffffffffffffffff8111156200027f57600080fd5b6200028d8582860162000223565b925050602083015167ffffffffffffffff811115620002ab57600080fd5b620002b98582860162000223565b9150509250929050565b6000620002cf620002e2565b9050620002dd82826200038e565b919050565b6000604051905090565b600067ffffffffffffffff8211156200030a5762000309620003f3565b5b620003158262000422565b9050602081019050919050565b60005b838110156200034257808201518184015260208101905062000325565b8381111562000352576000848401525b50505050565b600060028204905060018216806200037157607f821691505b60208210811415620003885762000387620003c4565b5b50919050565b620003998262000422565b810181811067ffffffffffffffff82111715620003bb57620003ba620003f3565b5b80604052505050565b7f4e487b7100000000000000000000000000000000000000000000000000000000600052602260045260246000fd5b7f4e487b7100000000000000000000000000000000000000000000000000000000600052604160045260246000fd5b6000601f19601f8301169050919050565b612c6c80620004436000396000f3fe608060405234801561001057600080fd5b50600436106101215760003560e01c80636352211e116100ad578063a22cb46511610071578063a22cb4651461031c578063b88d4fde14610338578063c87b56dd14610354578063e985e9c514610384578063f2fde38b146103b457610121565b80636352211e1461027657806370a08231146102a6578063715018a6146102d65780638da5cb5b146102e057806395d89b41146102fe57610121565b806323b872dd116100f457806323b872dd146101c05780633385e518146101dc5780633d02d0c91461020c57806342842e0e1461023c578063561892361461025857610121565b806301ffc9a71461012657806306fdde0314610156578063081812fc14610174578063095ea7b3146101a4575b600080fd5b610140600480360381019061013b9190611de7565b6103d0565b60405161014d91906121bb565b60405180910390f35b61015e6104b2565b60405161016b91906121d6565b60405180910390f35b61018e60048036038101906101899190611e39565b610544565b60405161019b9190612154565b60405180910390f35b6101be60048036038101906101b99190611dab565b6105c9565b005b6101da60048036038101906101d59190611c51565b6106e1565b005b6101f660048036038101906101f19190611e39565b610741565b60405161020391906121d6565b60405180910390f35b61022660048036038101906102219190611d57565b610834565b6040516102339190612418565b60405180910390f35b61025660048036038101906102519190611c51565b61086c565b005b61026061088c565b60405161026d9190612418565b60405180910390f35b610290600480360381019061028b9190611e39565b61089d565b60405161029d9190612154565b60405180910390f35b6102c060048036038101906102bb9190611bec565b61094f565b6040516102cd9190612418565b60405180910390f35b6102de610a07565b005b6102e8610b44565b6040516102f59190612154565b60405180910390f35b610306610b6e565b60405161031391906121d6565b60405180910390f35b61033660048036038101906103319190611d1b565b610c00565b005b610352600480360381019061034d9190611ca0565b610d81565b005b61036e60048036038101906103699190611e39565b610de3565b60405161037b91906121d6565b60405180910390f35b61039e60048036038101906103999190611c15565b610ed6565b6040516103ab91906121bb565b60405180910390f35b6103ce60048036038101906103c99190611bec565b610f6a565b005b60007f80ac58cd000000000000000000000000000000000000000000000000000000007bffffffffffffffffffffffffffffffffffffffffffffffffffffffff1916827bffffffffffffffffffffffffffffffffffffffffffffffffffffffff1916148061049b57507f5b5e139f000000000000000000000000000000000000000000000000000000007bffffffffffffffffffffffffffffffffffffffffffffffffffffffff1916827bffffffffffffffffffffffffffffffffffffffffffffffffffffffff1916145b806104ab57506104aa82611116565b5b9050919050565b6060600080546104c190612632565b80601f01602080910402602001604051908101604052809291908181526020018280546104ed90612632565b801561053a5780601f1061050f5761010080835404028352916020019161053a565b820191906000526020600020905b81548152906001019060200180831161051d57829003601f168201915b5050505050905090565b600061054f82611180565b61058e576040517f08c379a000000000000000000000000000000000000000000000000000000000815260040161058590612358565b60405180910390fd5b6004600083815260200190815260200160002060009054906101000a900473ffffffffffffffffffffffffffffffffffffffff169050919050565b60006105d48261089d565b90508073ffffffffffffffffffffffffffffffffffffffff168373ffffffffffffffffffffffffffffffffffffffff161415610645576040517f08c379a000000000000000000000000000000000000000000000000000000000815260040161063c906123d8565b60405180910390fd5b8073ffffffffffffffffffffffffffffffffffffffff166106646111ec565b73ffffffffffffffffffffffffffffffffffffffff16148061069357506106928161068d6111ec565b610ed6565b5b6106d2576040517f08c379a00000000000000000000000000000000000000000000000000000000081526004016106c9906122d8565b60405180910390fd5b6106dc83836111f4565b505050565b6106f26106ec6111ec565b826112ad565b610731576040517f08c379a0000000000000000000000000000000000000000000000000000000008152600401610728906123f8565b60405180910390fd5b61073c83838361138b565b505050565b606061074c82611180565b61078b576040517f08c379a000000000000000000000000000000000000000000000000000000000815260040161078290612258565b60405180910390fd5b60006009600084815260200190815260200160002080546107ab90612632565b80601f01602080910402602001604051908101604052809291908181526020018280546107d790612632565b80156108245780601f106107f957610100808354040283529160200191610824565b820191906000526020600020905b81548152906001019060200180831161080757829003601f168201915b5050505050905080915050919050565b600061084060076115e7565b600061084c60076115fd565b9050610858848261160b565b61086281846117d9565b8091505092915050565b61088783838360405180602001604052806000815250610d81565b505050565b600061089860076115fd565b905090565b6000806002600084815260200190815260200160002060009054906101000a900473ffffffffffffffffffffffffffffffffffffffff169050600073ffffffffffffffffffffffffffffffffffffffff168173ffffffffffffffffffffffffffffffffffffffff161415610946576040517f08c379a000000000000000000000000000000000000000000000000000000000815260040161093d90612318565b60405180910390fd5b80915050919050565b60008073ffffffffffffffffffffffffffffffffffffffff168273ffffffffffffffffffffffffffffffffffffffff1614156109c0576040517f08c379a00000000000000000000000000000000000000000000000000000000081526004016109b7906122f8565b60405180910390fd5b600360008373ffffffffffffffffffffffffffffffffffffffff1673ffffffffffffffffffffffffffffffffffffffff168152602001908152602001600020549050919050565b610a0f6111ec565b73ffffffffffffffffffffffffffffffffffffffff16610a2d610b44565b73ffffffffffffffffffffffffffffffffffffffff1614610a83576040517f08c379a0000000000000000000000000000000000000000000000000000000008152600401610a7a90612378565b60405180910390fd5b600073ffffffffffffffffffffffffffffffffffffffff16600660009054906101000a900473ffffffffffffffffffffffffffffffffffffffff1673ffffffffffffffffffffffffffffffffffffffff167f8be0079c531659141344cd1fd0a4f28419497f9722a3daafe3b4186f6b6457e060405160405180910390a36000600660006101000a81548173ffffffffffffffffffffffffffffffffffffffff021916908373ffffffffffffffffffffffffffffffffffffffff160217905550565b6000600660009054906101000a900473ffffffffffffffffffffffffffffffffffffffff16905090565b606060018054610b7d90612632565b80601f0160208091040260200160405190810160405280929190818152602001828054610ba990612632565b8015610bf65780601f10610bcb57610100808354040283529160200191610bf6565b820191906000526020600020905b815481529060010190602001808311610bd957829003601f168201915b5050505050905090565b610c086111ec565b73ffffffffffffffffffffffffffffffffffffffff168273ffffffffffffffffffffffffffffffffffffffff161415610c76576040517f08c379a0000000000000000000000000000000000000000000000000000000008152600401610c6d90612298565b60405180910390fd5b8060056000610c836111ec565b73ffffffffffffffffffffffffffffffffffffffff1673ffffffffffffffffffffffffffffffffffffffff16815260200190815260200160002060008473ffffffffffffffffffffffffffffffffffffffff1673ffffffffffffffffffffffffffffffffffffffff16815260200190815260200160002060006101000a81548160ff0219169083151502179055508173ffffffffffffffffffffffffffffffffffffffff16610d306111ec565b73ffffffffffffffffffffffffffffffffffffffff167f17307eab39ab6107e8899845ad3d59bd9653f200f220920489ca2b5937696c3183604051610d7591906121bb565b60405180910390a35050565b610d92610d8c6111ec565b836112ad565b610dd1576040517f08c379a0000000000000000000000000000000000000000000000000000000008152600401610dc8906123f8565b60405180910390fd5b610ddd84848484611805565b50505050565b6060610dee82611180565b610e2d576040517f08c379a0000000000000000000000000000000000000000000000000000000008152600401610e24906123b8565b60405180910390fd5b6000600860008481526020019081526020016000208054610e4d90612632565b80601f0160208091040260200160405190810160405280929190818152602001828054610e7990612632565b8015610ec65780601f10610e9b57610100808354040283529160200191610ec6565b820191906000526020600020905b815481529060010190602001808311610ea957829003601f168201915b5050505050905080915050919050565b6000600560008473ffffffffffffffffffffffffffffffffffffffff1673ffffffffffffffffffffffffffffffffffffffff16815260200190815260200160002060008373ffffffffffffffffffffffffffffffffffffffff1673ffffffffffffffffffffffffffffffffffffffff16815260200190815260200160002060009054906101000a900460ff16905092915050565b610f726111ec565b73ffffffffffffffffffffffffffffffffffffffff16610f90610b44565b73ffffffffffffffffffffffffffffffffffffffff1614610fe6576040517f08c379a0000000000000000000000000000000000000000000000000000000008152600401610fdd90612378565b60405180910390fd5b600073ffffffffffffffffffffffffffffffffffffffff168173ffffffffffffffffffffffffffffffffffffffff161415611056576040517f08c379a000000000000000000000000000000000000000000000000000000000815260040161104d90612218565b60405180910390fd5b8073ffffffffffffffffffffffffffffffffffffffff16600660009054906101000a900473ffffffffffffffffffffffffffffffffffffffff1673ffffffffffffffffffffffffffffffffffffffff167f8be0079c531659141344cd1fd0a4f28419497f9722a3daafe3b4186f6b6457e060405160405180910390a380600660006101000a81548173ffffffffffffffffffffffffffffffffffffffff021916908373ffffffffffffffffffffffffffffffffffffffff16021790555050565b60007f01ffc9a7000000000000000000000000000000000000000000000000000000007bffffffffffffffffffffffffffffffffffffffffffffffffffffffff1916827bffffffffffffffffffffffffffffffffffffffffffffffffffffffff1916149050919050565b60008073ffffffffffffffffffffffffffffffffffffffff166002600084815260200190815260200160002060009054906101000a900473ffffffffffffffffffffffffffffffffffffffff1673ffffffffffffffffffffffffffffffffffffffff1614159050919050565b600033905090565b816004600083815260200190815260200160002060006101000a81548173ffffffffffffffffffffffffffffffffffffffff021916908373ffffffffffffffffffffffffffffffffffffffff160217905550808273ffffffffffffffffffffffffffffffffffffffff166112678361089d565b73ffffffffffffffffffffffffffffffffffffffff167f8c5be1e5ebec7d5bd14f71427d1e84f3dd0314c0f7b2291e5b200ac8c7c3b92560405160405180910390a45050565b60006112b882611180565b6112f7576040517f08c379a00000000000000000000000000000000000000000000000000000000081526004016112ee906122b8565b60405180910390fd5b60006113028361089d565b90508073ffffffffffffffffffffffffffffffffffffffff168473ffffffffffffffffffffffffffffffffffffffff16148061137157508373ffffffffffffffffffffffffffffffffffffffff1661135984610544565b73ffffffffffffffffffffffffffffffffffffffff16145b8061138257506113818185610ed6565b5b91505092915050565b8273ffffffffffffffffffffffffffffffffffffffff166113ab8261089d565b73ffffffffffffffffffffffffffffffffffffffff1614611401576040517f08c379a00000000000000000000000000000000000000000000000000000000081526004016113f890612398565b60405180910390fd5b600073ffffffffffffffffffffffffffffffffffffffff168273ffffffffffffffffffffffffffffffffffffffff161415611471576040517f08c379a000000000000000000000000000000000000000000000000000000000815260040161146890612278565b60405180910390fd5b61147c838383611861565b6114876000826111f4565b6001600360008573ffffffffffffffffffffffffffffffffffffffff1673ffffffffffffffffffffffffffffffffffffffff16815260200190815260200160002060008282546114d79190612548565b925050819055506001600360008473ffffffffffffffffffffffffffffffffffffffff1673ffffffffffffffffffffffffffffffffffffffff168152602001908152602001600020600082825461152e91906124f2565b92505081905550816002600083815260200190815260200160002060006101000a81548173ffffffffffffffffffffffffffffffffffffffff021916908373ffffffffffffffffffffffffffffffffffffffff160217905550808273ffffffffffffffffffffffffffffffffffffffff168473ffffffffffffffffffffffffffffffffffffffff167fddf252ad1be2c89b69c2b068fc378daa952ba7f163c4a11628f55a4df523b3ef60405160405180910390a4505050565b6001816000016000828254019250508190555050565b600081600001549050919050565b600073ffffffffffffffffffffffffffffffffffffffff168273ffffffffffffffffffffffffffffffffffffffff16141561167b576040517f08c379a000000000000000000000000000000000000000000000000000000000815260040161167290612338565b60405180910390fd5b61168481611180565b156116c4576040517f08c379a00000000000000000000000000000000000000000000000000000000081526004016116bb90612238565b60405180910390fd5b6116d060008383611861565b6001600360008473ffffffffffffffffffffffffffffffffffffffff1673ffffffffffffffffffffffffffffffffffffffff168152602001908152602001600020600082825461172091906124f2565b92505081905550816002600083815260200190815260200160002060006101000a81548173ffffffffffffffffffffffffffffffffffffffff021916908373ffffffffffffffffffffffffffffffffffffffff160217905550808273ffffffffffffffffffffffffffffffffffffffff16600073ffffffffffffffffffffffffffffffffffffffff167fddf252ad1be2c89b69c2b068fc378daa952ba7f163c4a11628f55a4df523b3ef60405160405180910390a45050565b80600860008481526020019081526020016000209080519060200190611800929190611a10565b505050565b61181084848461138b565b61181c84848484611866565b61185b576040517f08c379a0000000000000000000000000000000000000000000000000000000008152600401611852906121f8565b60405180910390fd5b50505050565b505050565b60006118878473ffffffffffffffffffffffffffffffffffffffff166119fd565b156119f0578373ffffffffffffffffffffffffffffffffffffffff1663150b7a026118b06111ec565b8786866040518563ffffffff1660e01b81526004016118d2949392919061216f565b602060405180830381600087803b1580156118ec57600080fd5b505af192505050801561191d57506040513d601f19601f8201168201806040525081019061191a9190611e10565b60015b6119a0573d806000811461194d576040519150601f19603f3d011682016040523d82523d6000602084013e611952565b606091505b50600081511415611998576040517f08c379a000000000000000000000000000000000000000000000000000000000815260040161198f906121f8565b60405180910390fd5b805181602001fd5b63150b7a0260e01b7bffffffffffffffffffffffffffffffffffffffffffffffffffffffff1916817bffffffffffffffffffffffffffffffffffffffffffffffffffffffff1916149150506119f5565b600190505b949350505050565b600080823b905060008111915050919050565b828054611a1c90612632565b90600052602060002090601f016020900481019282611a3e5760008555611a85565b82601f10611a5757805160ff1916838001178555611a85565b82800160010185558215611a85579182015b82811115611a84578251825591602001919060010190611a69565b5b509050611a929190611a96565b5090565b5b80821115611aaf576000816000905550600101611a97565b5090565b6000611ac6611ac184612458565b612433565b905082815260208101848484011115611ade57600080fd5b611ae98482856125f0565b509392505050565b6000611b04611aff84612489565b612433565b905082815260208101848484011115611b1c57600080fd5b611b278482856125f0565b509392505050565b600081359050611b3e81612bda565b92915050565b600081359050611b5381612bf1565b92915050565b600081359050611b6881612c08565b92915050565b600081519050611b7d81612c08565b92915050565b600082601f830112611b9457600080fd5b8135611ba4848260208601611ab3565b91505092915050565b600082601f830112611bbe57600080fd5b8135611bce848260208601611af1565b91505092915050565b600081359050611be681612c1f565b92915050565b600060208284031215611bfe57600080fd5b6000611c0c84828501611b2f565b91505092915050565b60008060408385031215611c2857600080fd5b6000611c3685828601611b2f565b9250506020611c4785828601611b2f565b9150509250929050565b600080600060608486031215611c6657600080fd5b6000611c7486828701611b2f565b9350506020611c8586828701611b2f565b9250506040611c9686828701611bd7565b9150509250925092565b60008060008060808587031215611cb657600080fd5b6000611cc487828801611b2f565b9450506020611cd587828801611b2f565b9350506040611ce687828801611bd7565b925050606085013567ffffffffffffffff811115611d0357600080fd5b611d0f87828801611b83565b91505092959194509250565b60008060408385031215611d2e57600080fd5b6000611d3c85828601611b2f565b9250506020611d4d85828601611b44565b9150509250929050565b60008060408385031215611d6a57600080fd5b6000611d7885828601611b2f565b925050602083013567ffffffffffffffff811115611d9557600080fd5b611da185828601611bad565b9150509250929050565b60008060408385031215611dbe57600080fd5b6000611dcc85828601611b2f565b9250506020611ddd85828601611bd7565b9150509250929050565b600060208284031215611df957600080fd5b6000611e0784828501611b59565b91505092915050565b600060208284031215611e2257600080fd5b6000611e3084828501611b6e565b91505092915050565b600060208284031215611e4b57600080fd5b6000611e5984828501611bd7565b91505092915050565b611e6b8161257c565b82525050565b611e7a8161258e565b82525050565b6000611e8b826124ba565b611e9581856124d0565b9350611ea58185602086016125ff565b611eae81612722565b840191505092915050565b6000611ec4826124c5565b611ece81856124e1565b9350611ede8185602086016125ff565b611ee781612722565b840191505092915050565b6000611eff6032836124e1565b9150611f0a82612733565b604082019050919050565b6000611f226026836124e1565b9150611f2d82612782565b604082019050919050565b6000611f45601c836124e1565b9150611f50826127d1565b602082019050919050565b6000611f686035836124e1565b9150611f73826127fa565b604082019050919050565b6000611f8b6024836124e1565b9150611f9682612849565b604082019050919050565b6000611fae6019836124e1565b9150611fb982612898565b602082019050919050565b6000611fd1602c836124e1565b9150611fdc826128c1565b604082019050919050565b6000611ff46038836124e1565b9150611fff82612910565b604082019050919050565b6000612017602a836124e1565b91506120228261295f565b604082019050919050565b600061203a6029836124e1565b9150612045826129ae565b604082019050919050565b600061205d6020836124e1565b9150612068826129fd565b602082019050919050565b6000612080602c836124e1565b915061208b82612a26565b604082019050919050565b60006120a36020836124e1565b91506120ae82612a75565b602082019050919050565b60006120c66029836124e1565b91506120d182612a9e565b604082019050919050565b60006120e9602f836124e1565b91506120f482612aed565b604082019050919050565b600061210c6021836124e1565b915061211782612b3c565b604082019050919050565b600061212f6031836124e1565b915061213a82612b8b565b604082019050919050565b61214e816125e6565b82525050565b60006020820190506121696000830184611e62565b92915050565b60006080820190506121846000830187611e62565b6121916020830186611e62565b61219e6040830185612145565b81810360608301526121b08184611e80565b905095945050505050565b60006020820190506121d06000830184611e71565b92915050565b600060208201905081810360008301526121f08184611eb9565b905092915050565b6000602082019050818103600083015261221181611ef2565b9050919050565b6000602082019050818103600083015261223181611f15565b9050919050565b6000602082019050818103600083015261225181611f38565b9050919050565b6000602082019050818103600083015261227181611f5b565b9050919050565b6000602082019050818103600083015261229181611f7e565b9050919050565b600060208201905081810360008301526122b181611fa1565b9050919050565b600060208201905081810360008301526122d181611fc4565b9050919050565b600060208201905081810360008301526122f181611fe7565b9050919050565b600060208201905081810360008301526123118161200a565b9050919050565b600060208201905081810360008301526123318161202d565b9050919050565b6000602082019050818103600083015261235181612050565b9050919050565b6000602082019050818103600083015261237181612073565b9050919050565b6000602082019050818103600083015261239181612096565b9050919050565b600060208201905081810360008301526123b1816120b9565b9050919050565b600060208201905081810360008301526123d1816120dc565b9050919050565b600060208201905081810360008301526123f1816120ff565b9050919050565b6000602082019050818103600083015261241181612122565b9050919050565b600060208201905061242d6000830184612145565b92915050565b600061243d61244e565b90506124498282612664565b919050565b6000604051905090565b600067ffffffffffffffff821115612473576124726126f3565b5b61247c82612722565b9050602081019050919050565b600067ffffffffffffffff8211156124a4576124a36126f3565b5b6124ad82612722565b9050602081019050919050565b600081519050919050565b600081519050919050565b600082825260208201905092915050565b600082825260208201905092915050565b60006124fd826125e6565b9150612508836125e6565b9250827fffffffffffffffffffffffffffffffffffffffffffffffffffffffffffffffff0382111561253d5761253c612695565b5b828201905092915050565b6000612553826125e6565b915061255e836125e6565b92508282101561257157612570612695565b5b828203905092915050565b6000612587826125c6565b9050919050565b60008115159050919050565b60007fffffffff0000000000000000000000000000000000000000000000000000000082169050919050565b600073ffffffffffffffffffffffffffffffffffffffff82169050919050565b6000819050919050565b82818337600083830152505050565b60005b8381101561261d578082015181840152602081019050612602565b8381111561262c576000848401525b50505050565b6000600282049050600182168061264a57607f821691505b6020821081141561265e5761265d6126c4565b5b50919050565b61266d82612722565b810181811067ffffffffffffffff8211171561268c5761268b6126f3565b5b80604052505050565b7f4e487b7100000000000000000000000000000000000000000000000000000000600052601160045260246000fd5b7f4e487b7100000000000000000000000000000000000000000000000000000000600052602260045260246000fd5b7f4e487b7100000000000000000000000000000000000000000000000000000000600052604160045260246000fd5b6000601f19601f8301169050919050565b7f4552433732313a207472616e7366657220746f206e6f6e20455243373231526560008201527f63656976657220696d706c656d656e7465720000000000000000000000000000602082015250565b7f4f776e61626c653a206e6577206f776e657220697320746865207a65726f206160008201527f6464726573730000000000000000000000000000000000000000000000000000602082015250565b7f4552433732313a20746f6b656e20616c7265616479206d696e74656400000000600082015250565b7f4552433732314d657461646174613a204974656d20737461742071756572792060008201527f666f72206e6f6e6578697374656e7420746f6b656e0000000000000000000000602082015250565b7f4552433732313a207472616e7366657220746f20746865207a65726f2061646460008201527f7265737300000000000000000000000000000000000000000000000000000000602082015250565b7f4552433732313a20617070726f766520746f2063616c6c657200000000000000600082015250565b7f4552433732313a206f70657261746f7220717565727920666f72206e6f6e657860008201527f697374656e7420746f6b656e0000000000000000000000000000000000000000602082015250565b7f4552433732313a20617070726f76652063616c6c6572206973206e6f74206f7760008201527f6e6572206e6f7220617070726f76656420666f7220616c6c0000000000000000602082015250565b7f4552433732313a2062616c616e636520717565727920666f7220746865207a6560008201527f726f206164647265737300000000000000000000000000000000000000000000602082015250565b7f4552433732313a206f776e657220717565727920666f72206e6f6e657869737460008201527f656e7420746f6b656e0000000000000000000000000000000000000000000000602082015250565b7f4552433732313a206d696e7420746f20746865207a65726f2061646472657373600082015250565b7f4552433732313a20617070726f76656420717565727920666f72206e6f6e657860008201527f697374656e7420746f6b656e0000000000000000000000000000000000000000602082015250565b7f4f776e61626c653a2063616c6c6572206973206e6f7420746865206f776e6572600082015250565b7f4552433732313a207472616e73666572206f6620746f6b656e2074686174206960008201527f73206e6f74206f776e0000000000000000000000000000000000000000000000602082015250565b7f4552433732314d657461646174613a2055524920717565727920666f72206e6f60008201527f6e6578697374656e7420746f6b656e0000000000000000000000000000000000602082015250565b7f4552433732313a20617070726f76616c20746f2063757272656e74206f776e6560008201527f7200000000000000000000000000000000000000000000000000000000000000602082015250565b7f4552433732313a207472616e736665722063616c6c6572206973206e6f74206f60008201527f776e6572206e6f7220617070726f766564000000000000000000000000000000602082015250565b612be38161257c565b8114612bee57600080fd5b50565b612bfa8161258e565b8114612c0557600080fd5b50565b612c118161259a565b8114612c1c57600080fd5b50565b612c28816125e6565b8114612c3357600080fd5b5056fea264697066735822122004d7114c85172d0c2b4b5cc4c017d7800d65784a4a5a1a16c69a3e53e6d6532664736f6c63430008040033",
  "linkReferences": {},
  "deployedLinkReferences": {}
}