{
  "_format": "hh-sol-artifact-1",
  "contractName": "STARIVERPudgyPenguins10",
  "sourceName": "contracts/STARIVERPudgyPenguins10.sol",
  "abi": [
    {
      "inputs": [
        {
          "internalType": "string",
          "name": "baseURI",
          "type": "string"
        }
      ],
      "stateMutability": "nonpayable",
      "type": "constructor"
    },
    {
      "anonymous": false,
      "inputs": [
        {
          "indexed": true,
          "internalType": "address",
          "name": "owner",
          "type": "address"
        },
        {
          "indexed": true,
          "internalType": "address",
          "name": "approved",
          "type": "address"
        },
        {
          "indexed": true,
          "internalType": "uint256",
          "name": "tokenId",
          "type": "uint256"
        }
      ],
      "name": "Approval",
      "type": "event"
    },
    {
      "anonymous": false,
      "inputs": [
        {
          "indexed": true,
          "internalType": "address",
          "name": "owner",
          "type": "address"
        },
        {
          "indexed": true,
          "internalType": "address",
          "name": "operator",
          "type": "address"
        },
        {
          "indexed": false,
          "internalType": "bool",
          "name": "approved",
          "type": "bool"
        }
      ],
      "name": "ApprovalForAll",
      "type": "event"
    },
    {
      "anonymous": false,
      "inputs": [
        {
          "indexed": true,
          "internalType": "uint256",
          "name": "id",
          "type": "uint256"
        }
      ],
      "name": "CreatePenguin",
      "type": "event"
    },
    {
      "anonymous": false,
      "inputs": [
        {
          "indexed": true,
          "internalType": "address",
          "name": "previousOwner",
          "type": "address"
        },
        {
          "indexed": true,
          "internalType": "address",
          "name": "newOwner",
          "type": "address"
        }
      ],
      "name": "OwnershipTransferred",
      "type": "event"
    },
    {
      "anonymous": false,
      "inputs": [
        {
          "indexed": false,
          "internalType": "address",
          "name": "account",
          "type": "address"
        }
      ],
      "name": "Paused",
      "type": "event"
    },
    {
      "anonymous": false,
      "inputs": [
        {
          "indexed": true,
          "internalType": "address",
          "name": "from",
          "type": "address"
        },
        {
          "indexed": true,
          "internalType": "address",
          "name": "to",
          "type": "address"
        },
        {
          "indexed": true,
          "internalType": "uint256",
          "name": "tokenId",
          "type": "uint256"
        }
      ],
      "name": "Transfer",
      "type": "event"
    },
    {
      "anonymous": false,
      "inputs": [
        {
          "indexed": false,
          "internalType": "address",
          "name": "account",
          "type": "address"
        }
      ],
      "name": "Unpaused",
      "type": "event"
    },
    {
      "inputs": [],
      "name": "MAX_BY_MINT",
      "outputs": [
        {
          "internalType": "uint256",
          "name": "",
          "type": "uint256"
        }
      ],
      "stateMutability": "view",
      "type": "function"
    },
    {
      "inputs": [],
      "name": "MAX_ELEMENTS",
      "outputs": [
        {
          "internalType": "uint256",
          "name": "",
          "type": "uint256"
        }
      ],
      "stateMutability": "view",
      "type": "function"
    },
    {
      "inputs": [],
      "name": "PRICE",
      "outputs": [
        {
          "internalType": "uint256",
          "name": "",
          "type": "uint256"
        }
      ],
      "stateMutability": "view",
      "type": "function"
    },
    {
      "inputs": [
        {
          "internalType": "address",
          "name": "to",
          "type": "address"
        },
        {
          "internalType": "uint256",
          "name": "tokenId",
          "type": "uint256"
        }
      ],
      "name": "approve",
      "outputs": [],
      "stateMutability": "nonpayable",
      "type": "function"
    },
    {
      "inputs": [
        {
          "internalType": "address",
          "name": "owner",
          "type": "address"
        }
      ],
      "name": "balanceOf",
      "outputs": [
        {
          "internalType": "uint256",
          "name": "",
          "type": "uint256"
        }
      ],
      "stateMutability": "view",
      "type": "function"
    },
    {
      "inputs": [],
      "name": "baseTokenURI",
      "outputs": [
        {
          "internalType": "string",
          "name": "",
          "type": "string"
        }
      ],
      "stateMutability": "view",
      "type": "function"
    },
    {
      "inputs": [
        {
          "internalType": "uint256",
          "name": "tokenId",
          "type": "uint256"
        }
      ],
      "name": "burn",
      "outputs": [],
      "stateMutability": "nonpayable",
      "type": "function"
    },
    {
      "inputs": [],
      "name": "creatorAddress",
      "outputs": [
        {
          "internalType": "address",
          "name": "",
          "type": "address"
        }
      ],
      "stateMutability": "view",
      "type": "function"
    },
    {
      "inputs": [],
      "name": "devAddress",
      "outputs": [
        {
          "internalType": "address",
          "name": "",
          "type": "address"
        }
      ],
      "stateMutability": "view",
      "type": "function"
    },
    {
      "inputs": [
        {
          "internalType": "uint256",
          "name": "tokenId",
          "type": "uint256"
        }
      ],
      "name": "getApproved",
      "outputs": [
        {
          "internalType": "address",
          "name": "",
          "type": "address"
        }
      ],
      "stateMutability": "view",
      "type": "function"
    },
    {
      "inputs": [
        {
          "internalType": "address",
          "name": "owner",
          "type": "address"
        },
        {
          "internalType": "address",
          "name": "operator",
          "type": "address"
        }
      ],
      "name": "isApprovedForAll",
      "outputs": [
        {
          "internalType": "bool",
          "name": "",
          "type": "bool"
        }
      ],
      "stateMutability": "view",
      "type": "function"
    },
    {
      "inputs": [
        {
          "internalType": "address",
          "name": "_to",
          "type": "address"
        },
        {
          "internalType": "uint256",
          "name": "_count",
          "type": "uint256"
        }
      ],
      "name": "mint",
      "outputs": [],
      "stateMutability": "payable",
      "type": "function"
    },
    {
      "inputs": [],
      "name": "name",
      "outputs": [
        {
          "internalType": "string",
          "name": "",
          "type": "string"
        }
      ],
      "stateMutability": "view",
      "type": "function"
    },
    {
      "inputs": [],
      "name": "owner",
      "outputs": [
        {
          "internalType": "address",
          "name": "",
          "type": "address"
        }
      ],
      "stateMutability": "view",
      "type": "function"
    },
    {
      "inputs": [
        {
          "internalType": "uint256",
          "name": "tokenId",
          "type": "uint256"
        }
      ],
      "name": "ownerOf",
      "outputs": [
        {
          "internalType": "address",
          "name": "",
          "type": "address"
        }
      ],
      "stateMutability": "view",
      "type": "function"
    },
    {
      "inputs": [
        {
          "internalType": "bool",
          "name": "val",
          "type": "bool"
        }
      ],
      "name": "pause",
      "outputs": [],
      "stateMutability": "nonpayable",
      "type": "function"
    },
    {
      "inputs": [],
      "name": "paused",
      "outputs": [
        {
          "internalType": "bool",
          "name": "",
          "type": "bool"
        }
      ],
      "stateMutability": "view",
      "type": "function"
    },
    {
      "inputs": [
        {
          "internalType": "uint256",
          "name": "_count",
          "type": "uint256"
        }
      ],
      "name": "price",
      "outputs": [
        {
          "internalType": "uint256",
          "name": "",
          "type": "uint256"
        }
      ],
      "stateMutability": "pure",
      "type": "function"
    },
    {
      "inputs": [],
      "name": "renounceOwnership",
      "outputs": [],
      "stateMutability": "nonpayable",
      "type": "function"
    },
    {
      "inputs": [],
      "name": "reveal_timestamp",
      "outputs": [
        {
          "internalType": "uint256",
          "name": "",
          "type": "uint256"
        }
      ],
      "stateMutability": "view",
      "type": "function"
    },
    {
      "inputs": [
        {
          "internalType": "address",
          "name": "from",
          "type": "address"
        },
        {
          "internalType": "address",
          "name": "to",
          "type": "address"
        },
        {
          "internalType": "uint256",
          "name": "tokenId",
          "type": "uint256"
        }
      ],
      "name": "safeTransferFrom",
      "outputs": [],
      "stateMutability": "nonpayable",
      "type": "function"
    },
    {
      "inputs": [
        {
          "internalType": "address",
          "name": "from",
          "type": "address"
        },
        {
          "internalType": "address",
          "name": "to",
          "type": "address"
        },
        {
          "internalType": "uint256",
          "name": "tokenId",
          "type": "uint256"
        },
        {
          "internalType": "bytes",
          "name": "_data",
          "type": "bytes"
        }
      ],
      "name": "safeTransferFrom",
      "outputs": [],
      "stateMutability": "nonpayable",
      "type": "function"
    },
    {
      "inputs": [
        {
          "internalType": "address",
          "name": "operator",
          "type": "address"
        },
        {
          "internalType": "bool",
          "name": "approved",
          "type": "bool"
        }
      ],
      "name": "setApprovalForAll",
      "outputs": [],
      "stateMutability": "nonpayable",
      "type": "function"
    },
    {
      "inputs": [
        {
          "internalType": "string",
          "name": "baseURI",
          "type": "string"
        }
      ],
      "name": "setBaseURI",
      "outputs": [],
      "stateMutability": "nonpayable",
      "type": "function"
    },
    {
      "inputs": [
        {
          "internalType": "bytes4",
          "name": "interfaceId",
          "type": "bytes4"
        }
      ],
      "name": "supportsInterface",
      "outputs": [
        {
          "internalType": "bool",
          "name": "",
          "type": "bool"
        }
      ],
      "stateMutability": "view",
      "type": "function"
    },
    {
      "inputs": [],
      "name": "symbol",
      "outputs": [
        {
          "internalType": "string",
          "name": "",
          "type": "string"
        }
      ],
      "stateMutability": "view",
      "type": "function"
    },
    {
      "inputs": [
        {
          "internalType": "uint256",
          "name": "index",
          "type": "uint256"
        }
      ],
      "name": "tokenByIndex",
      "outputs": [
        {
          "internalType": "uint256",
          "name": "",
          "type": "uint256"
        }
      ],
      "stateMutability": "view",
      "type": "function"
    },
    {
      "inputs": [
        {
          "internalType": "address",
          "name": "owner",
          "type": "address"
        },
        {
          "internalType": "uint256",
          "name": "index",
          "type": "uint256"
        }
      ],
      "name": "tokenOfOwnerByIndex",
      "outputs": [
        {
          "internalType": "uint256",
          "name": "",
          "type": "uint256"
        }
      ],
      "stateMutability": "view",
      "type": "function"
    },
    {
      "inputs": [
        {
          "internalType": "uint256",
          "name": "tokenId",
          "type": "uint256"
        }
      ],
      "name": "tokenURI",
      "outputs": [
        {
          "internalType": "string",
          "name": "",
          "type": "string"
        }
      ],
      "stateMutability": "view",
      "type": "function"
    },
    {
      "inputs": [],
      "name": "totalMint",
      "outputs": [
        {
          "internalType": "uint256",
          "name": "",
          "type": "uint256"
        }
      ],
      "stateMutability": "view",
      "type": "function"
    },
    {
      "inputs": [],
      "name": "totalSupply",
      "outputs": [
        {
          "internalType": "uint256",
          "name": "",
          "type": "uint256"
        }
      ],
      "stateMutability": "view",
      "type": "function"
    },
    {
      "inputs": [
        {
          "internalType": "address",
          "name": "from",
          "type": "address"
        },
        {
          "internalType": "address",
          "name": "to",
          "type": "address"
        },
        {
          "internalType": "uint256",
          "name": "tokenId",
          "type": "uint256"
        }
      ],
      "name": "transferFrom",
      "outputs": [],
      "stateMutability": "nonpayable",
      "type": "function"
    },
    {
      "inputs": [
        {
          "internalType": "address",
          "name": "newOwner",
          "type": "address"
        }
      ],
      "name": "transferOwnership",
      "outputs": [],
      "stateMutability": "nonpayable",
      "type": "function"
    },
    {
      "inputs": [
        {
          "internalType": "address",
          "name": "_owner",
          "type": "address"
        }
      ],
      "name": "walletOfOwner",
      "outputs": [
        {
          "internalType": "uint256[]",
          "name": "",
          "type": "uint256[]"
        }
      ],
      "stateMutability": "view",
      "type": "function"
    },
    {
      "inputs": [],
      "name": "withdrawAll",
      "outputs": [],
      "stateMutability": "payable",
      "type": "function"
    }
  ],
  "bytecode": "0x60806040523480156200001157600080fd5b50604051620053d7380380620053d7833981810160405281019062000037919062000619565b6040518060400160405280601781526020017f5354415249564552507564677950656e6775696e7331300000000000000000008152506040518060400160405280600381526020017f50504700000000000000000000000000000000000000000000000000000000008152508160009080519060200190620000bb929190620004f7565b508060019080519060200190620000d4929190620004f7565b5050506000620000e9620001cd60201b60201c565b905080600a60006101000a81548173ffffffffffffffffffffffffffffffffffffffff021916908373ffffffffffffffffffffffffffffffffffffffff1602179055508073ffffffffffffffffffffffffffffffffffffffff16600073ffffffffffffffffffffffffffffffffffffffff167f8be0079c531659141344cd1fd0a4f28419497f9722a3daafe3b4186f6b6457e060405160405180910390a3506000600a60146101000a81548160ff021916908315150217905550620001b481620001d560201b60201c565b620001c660016200028060201b60201c565b5062000997565b600033905090565b620001e5620001cd60201b60201c565b73ffffffffffffffffffffffffffffffffffffffff166200020b6200034760201b60201c565b73ffffffffffffffffffffffffffffffffffffffff161462000264576040517f08c379a00000000000000000000000000000000000000000000000000000000081526004016200025b9062000745565b60405180910390fd5b80600c90805190602001906200027c929190620004f7565b5050565b62000290620001cd60201b60201c565b73ffffffffffffffffffffffffffffffffffffffff16620002b66200034760201b60201c565b73ffffffffffffffffffffffffffffffffffffffff16146200030f576040517f08c379a0000000000000000000000000000000000000000000000000000000008152600401620003069062000745565b60405180910390fd5b60011515811515141562000333576200032d6200037160201b60201c565b62000344565b620003436200042960201b60201c565b5b50565b6000600a60009054906101000a900473ffffffffffffffffffffffffffffffffffffffff16905090565b62000381620004e060201b60201c565b15620003c4576040517f08c379a0000000000000000000000000000000000000000000000000000000008152600401620003bb9062000723565b60405180910390fd5b6001600a60146101000a81548160ff0219169083151502179055507f62e78cea01bee320cd4e420270b5ea74000d11b0c9f74754ebdbfc544b05a25862000410620001cd60201b60201c565b6040516200041f9190620006e4565b60405180910390a1565b62000439620004e060201b60201c565b6200047b576040517f08c379a0000000000000000000000000000000000000000000000000000000008152600401620004729062000701565b60405180910390fd5b6000600a60146101000a81548160ff0219169083151502179055507f5db9ee0a495bf2e6ff9c91a7834c1ba4fdd244a5e8aa4e537bd38aeae4b073aa620004c7620001cd60201b60201c565b604051620004d69190620006e4565b60405180910390a1565b6000600a60149054906101000a900460ff16905090565b828054620005059062000841565b90600052602060002090601f01602090048101928262000529576000855562000575565b82601f106200054457805160ff191683800117855562000575565b8280016001018555821562000575579182015b828111156200057457825182559160200191906001019062000557565b5b50905062000584919062000588565b5090565b5b80821115620005a357600081600090555060010162000589565b5090565b6000620005be620005b88462000790565b62000767565b905082815260208101848484011115620005d757600080fd5b620005e48482856200080b565b509392505050565b600082601f830112620005fe57600080fd5b815162000610848260208601620005a7565b91505092915050565b6000602082840312156200062c57600080fd5b600082015167ffffffffffffffff8111156200064757600080fd5b6200065584828501620005ec565b91505092915050565b6200066981620007d7565b82525050565b60006200067e601483620007c6565b91506200068b826200091c565b602082019050919050565b6000620006a5601083620007c6565b9150620006b28262000945565b602082019050919050565b6000620006cc602083620007c6565b9150620006d9826200096e565b602082019050919050565b6000602082019050620006fb60008301846200065e565b92915050565b600060208201905081810360008301526200071c816200066f565b9050919050565b600060208201905081810360008301526200073e8162000696565b9050919050565b600060208201905081810360008301526200076081620006bd565b9050919050565b60006200077362000786565b905062000781828262000877565b919050565b6000604051905090565b600067ffffffffffffffff821115620007ae57620007ad620008dc565b5b620007b9826200090b565b9050602081019050919050565b600082825260208201905092915050565b6000620007e482620007eb565b9050919050565b600073ffffffffffffffffffffffffffffffffffffffff82169050919050565b60005b838110156200082b5780820151818401526020810190506200080e565b838111156200083b576000848401525b50505050565b600060028204905060018216806200085a57607f821691505b60208210811415620008715762000870620008ad565b5b50919050565b62000882826200090b565b810181811067ffffffffffffffff82111715620008a457620008a3620008dc565b5b80604052505050565b7f4e487b7100000000000000000000000000000000000000000000000000000000600052602260045260246000fd5b7f4e487b7100000000000000000000000000000000000000000000000000000000600052604160045260246000fd5b6000601f19601f8301169050919050565b7f5061757361626c653a206e6f7420706175736564000000000000000000000000600082015250565b7f5061757361626c653a2070617573656400000000000000000000000000000000600082015250565b7f4f776e61626c653a2063616c6c6572206973206e6f7420746865206f776e6572600082015250565b614a3080620009a76000396000f3fe6080604052600436106102045760003560e01c806359a7715a1161011857806395d89b41116100a0578063d547cfb71161006f578063d547cfb714610761578063e3e1047a1461078c578063e927fc5c146107b7578063e985e9c5146107e2578063f2fde38b1461081f57610204565b806395d89b41146106a7578063a22cb465146106d2578063b88d4fde146106fb578063c87b56dd1461072457610204565b8063715018a6116100e7578063715018a614610605578063853828b61461061c5780638ad5de28146106265780638d859f3e146106515780638da5cb5b1461067c57610204565b806359a7715a146105355780635c975abb146105605780636352211e1461058b57806370a08231146105c857610204565b80632f745c591161019b57806342842e0e1161016a57806342842e0e1461044057806342966c6814610469578063438b6300146104925780634f6ccce7146104cf57806355f804b31461050c57610204565b80632f745c59146103915780633502a716146103ce5780633ad10ef6146103f957806340c10f191461042457610204565b8063095ea7b3116101d7578063095ea7b3146102d757806318160ddd1461030057806323b872dd1461032b57806326a49e371461035457610204565b806301ffc9a71461020957806302329a291461024657806306fdde031461026f578063081812fc1461029a575b600080fd5b34801561021557600080fd5b50610230600480360381019061022b9190613472565b610848565b60405161023d9190613af6565b60405180910390f35b34801561025257600080fd5b5061026d60048036038101906102689190613449565b61085a565b005b34801561027b57600080fd5b506102846108fc565b6040516102919190613b11565b60405180910390f35b3480156102a657600080fd5b506102c160048036038101906102bc9190613505565b61098e565b6040516102ce9190613a6d565b60405180910390f35b3480156102e357600080fd5b506102fe60048036038101906102f9919061340d565b610a13565b005b34801561030c57600080fd5b50610315610b2b565b6040516103229190613e73565b60405180910390f35b34801561033757600080fd5b50610352600480360381019061034d9190613307565b610b38565b005b34801561036057600080fd5b5061037b60048036038101906103769190613505565b610b98565b6040516103889190613e73565b60405180910390f35b34801561039d57600080fd5b506103b860048036038101906103b3919061340d565b610bc0565b6040516103c59190613e73565b60405180910390f35b3480156103da57600080fd5b506103e3610c65565b6040516103f09190613e73565b60405180910390f35b34801561040557600080fd5b5061040e610c6b565b60405161041b9190613a6d565b60405180910390f35b61043e6004803603810190610439919061340d565b610c83565b005b34801561044c57600080fd5b5061046760048036038101906104629190613307565b610e6b565b005b34801561047557600080fd5b50610490600480360381019061048b9190613505565b610e8b565b005b34801561049e57600080fd5b506104b960048036038101906104b491906132a2565b610ee7565b6040516104c69190613ad4565b60405180910390f35b3480156104db57600080fd5b506104f660048036038101906104f19190613505565b610fe1565b6040516105039190613e73565b60405180910390f35b34801561051857600080fd5b50610533600480360381019061052e91906134c4565b611078565b005b34801561054157600080fd5b5061054a61110e565b6040516105579190613e73565b60405180910390f35b34801561056c57600080fd5b5061057561111d565b6040516105829190613af6565b60405180910390f35b34801561059757600080fd5b506105b260048036038101906105ad9190613505565b611134565b6040516105bf9190613a6d565b60405180910390f35b3480156105d457600080fd5b506105ef60048036038101906105ea91906132a2565b6111e6565b6040516105fc9190613e73565b60405180910390f35b34801561061157600080fd5b5061061a61129e565b005b6106246113db565b005b34801561063257600080fd5b5061063b6114ce565b6040516106489190613e73565b60405180910390f35b34801561065d57600080fd5b506106666114d3565b6040516106739190613e73565b60405180910390f35b34801561068857600080fd5b506106916114e3565b60405161069e9190613a6d565b60405180910390f35b3480156106b357600080fd5b506106bc61150d565b6040516106c99190613b11565b60405180910390f35b3480156106de57600080fd5b506106f960048036038101906106f491906133d1565b61159f565b005b34801561070757600080fd5b50610722600480360381019061071d9190613356565b611720565b005b34801561073057600080fd5b5061074b60048036038101906107469190613505565b611782565b6040516107589190613b11565b60405180910390f35b34801561076d57600080fd5b50610776611829565b6040516107839190613b11565b60405180910390f35b34801561079857600080fd5b506107a16118b7565b6040516107ae9190613e73565b60405180910390f35b3480156107c357600080fd5b506107cc6118c1565b6040516107d99190613a6d565b60405180910390f35b3480156107ee57600080fd5b50610809600480360381019061080491906132cb565b6118d9565b6040516108169190613af6565b60405180910390f35b34801561082b57600080fd5b50610846600480360381019061084191906132a2565b61196d565b005b600061085382611b19565b9050919050565b610862611b93565b73ffffffffffffffffffffffffffffffffffffffff166108806114e3565b73ffffffffffffffffffffffffffffffffffffffff16146108d6576040517f08c379a00000000000000000000000000000000000000000000000000000000081526004016108cd90613d73565b60405180910390fd5b6001151581151514156108f0576108eb611b9b565b6108f9565b6108f8611c3e565b5b50565b60606000805461090b90614167565b80601f016020809104026020016040519081016040528092919081815260200182805461093790614167565b80156109845780601f1061095957610100808354040283529160200191610984565b820191906000526020600020905b81548152906001019060200180831161096757829003601f168201915b5050505050905090565b600061099982611ce0565b6109d8576040517f08c379a00000000000000000000000000000000000000000000000000000000081526004016109cf90613d53565b60405180910390fd5b6004600083815260200190815260200160002060009054906101000a900473ffffffffffffffffffffffffffffffffffffffff169050919050565b6000610a1e82611134565b90508073ffffffffffffffffffffffffffffffffffffffff168373ffffffffffffffffffffffffffffffffffffffff161415610a8f576040517f08c379a0000000000000000000000000000000000000000000000000000000008152600401610a8690613dd3565b60405180910390fd5b8073ffffffffffffffffffffffffffffffffffffffff16610aae611b93565b73ffffffffffffffffffffffffffffffffffffffff161480610add5750610adc81610ad7611b93565b6118d9565b5b610b1c576040517f08c379a0000000000000000000000000000000000000000000000000000000008152600401610b1390613cb3565b60405180910390fd5b610b268383611d4c565b505050565b6000600880549050905090565b610b49610b43611b93565b82611e05565b610b88576040517f08c379a0000000000000000000000000000000000000000000000000000000008152600401610b7f90613e13565b60405180910390fd5b610b93838383611ee3565b505050565b6000610bb982600180610bab9190613ff2565b61213f90919063ffffffff16565b9050919050565b6000610bcb836111e6565b8210610c0c576040517f08c379a0000000000000000000000000000000000000000000000000000000008152600401610c0390613b93565b60405180910390fd5b600660008473ffffffffffffffffffffffffffffffffffffffff1673ffffffffffffffffffffffffffffffffffffffff168152602001908152602001600020600083815260200190815260200160002054905092915050565b6122b881565b73cbcc84766f2950cf867f42d766c43fb2d2ba325681565b6122b8610c8e612155565b1115610ccf576040517f08c379a0000000000000000000000000000000000000000000000000000000008152600401610cc690613d33565b60405180910390fd5b610cd76114e3565b73ffffffffffffffffffffffffffffffffffffffff16610cf5611b93565b73ffffffffffffffffffffffffffffffffffffffff1614610d5957610d1861111d565b15610d58576040517f08c379a0000000000000000000000000000000000000000000000000000000008152600401610d4f90613c93565b60405180910390fd5b5b6000610d63612155565b90506122b88282610d749190613f9c565b1115610db5576040517f08c379a0000000000000000000000000000000000000000000000000000000008152600401610dac90613c53565b60405180910390fd5b6122b8811115610dfa576040517f08c379a0000000000000000000000000000000000000000000000000000000008152600401610df190613d33565b60405180910390fd5b6014821115610e3e576040517f08c379a0000000000000000000000000000000000000000000000000000000008152600401610e3590613b73565b60405180910390fd5b60005b82811015610e6557610e5284612166565b8080610e5d906141ca565b915050610e41565b50505050565b610e8683838360405180602001604052806000815250611720565b505050565b610e9c610e96611b93565b82611e05565b610edb576040517f08c379a0000000000000000000000000000000000000000000000000000000008152600401610ed290613e53565b60405180910390fd5b610ee4816121b7565b50565b60606000610ef4836111e6565b905060008167ffffffffffffffff811115610f38577f4e487b7100000000000000000000000000000000000000000000000000000000600052604160045260246000fd5b604051908082528060200260200182016040528015610f665781602001602082028036833780820191505090505b50905060005b82811015610fd657610f7e8582610bc0565b828281518110610fb7577f4e487b7100000000000000000000000000000000000000000000000000000000600052603260045260246000fd5b6020026020010181815250508080610fce906141ca565b915050610f6c565b508092505050919050565b6000610feb610b2b565b821061102c576040517f08c379a000000000000000000000000000000000000000000000000000000000815260040161102390613e33565b60405180910390fd5b60088281548110611066577f4e487b7100000000000000000000000000000000000000000000000000000000600052603260045260246000fd5b90600052602060002001549050919050565b611080611b93565b73ffffffffffffffffffffffffffffffffffffffff1661109e6114e3565b73ffffffffffffffffffffffffffffffffffffffff16146110f4576040517f08c379a00000000000000000000000000000000000000000000000000000000081526004016110eb90613d73565b60405180910390fd5b80600c908051906020019061110a9291906130c6565b5050565b6000611118612155565b905090565b6000600a60149054906101000a900460ff16905090565b6000806002600084815260200190815260200160002060009054906101000a900473ffffffffffffffffffffffffffffffffffffffff169050600073ffffffffffffffffffffffffffffffffffffffff168173ffffffffffffffffffffffffffffffffffffffff1614156111dd576040517f08c379a00000000000000000000000000000000000000000000000000000000081526004016111d490613cf3565b60405180910390fd5b80915050919050565b60008073ffffffffffffffffffffffffffffffffffffffff168273ffffffffffffffffffffffffffffffffffffffff161415611257576040517f08c379a000000000000000000000000000000000000000000000000000000000815260040161124e90613cd3565b60405180910390fd5b600360008373ffffffffffffffffffffffffffffffffffffffff1673ffffffffffffffffffffffffffffffffffffffff168152602001908152602001600020549050919050565b6112a6611b93565b73ffffffffffffffffffffffffffffffffffffffff166112c46114e3565b73ffffffffffffffffffffffffffffffffffffffff161461131a576040517f08c379a000000000000000000000000000000000000000000000000000000000815260040161131190613d73565b60405180910390fd5b600073ffffffffffffffffffffffffffffffffffffffff16600a60009054906101000a900473ffffffffffffffffffffffffffffffffffffffff1673ffffffffffffffffffffffffffffffffffffffff167f8be0079c531659141344cd1fd0a4f28419497f9722a3daafe3b4186f6b6457e060405160405180910390a36000600a60006101000a81548173ffffffffffffffffffffffffffffffffffffffff021916908373ffffffffffffffffffffffffffffffffffffffff160217905550565b6113e3611b93565b73ffffffffffffffffffffffffffffffffffffffff166114016114e3565b73ffffffffffffffffffffffffffffffffffffffff1614611457576040517f08c379a000000000000000000000000000000000000000000000000000000000815260040161144e90613d73565b60405180910390fd5b60004790506000811161146957600080fd5b6114ad73cbcc84766f2950cf867f42d766c43fb2d2ba32566114a8606461149a60238661213f90919063ffffffff16565b6122c890919063ffffffff16565b6122de565b6114cb736f84fa72ca4554e0eefcb9032e5a4f1fb41b726c476122de565b50565b601481565b6001806114e09190613ff2565b81565b6000600a60009054906101000a900473ffffffffffffffffffffffffffffffffffffffff16905090565b60606001805461151c90614167565b80601f016020809104026020016040519081016040528092919081815260200182805461154890614167565b80156115955780601f1061156a57610100808354040283529160200191611595565b820191906000526020600020905b81548152906001019060200180831161157857829003601f168201915b5050505050905090565b6115a7611b93565b73ffffffffffffffffffffffffffffffffffffffff168273ffffffffffffffffffffffffffffffffffffffff161415611615576040517f08c379a000000000000000000000000000000000000000000000000000000000815260040161160c90613c33565b60405180910390fd5b8060056000611622611b93565b73ffffffffffffffffffffffffffffffffffffffff1673ffffffffffffffffffffffffffffffffffffffff16815260200190815260200160002060008473ffffffffffffffffffffffffffffffffffffffff1673ffffffffffffffffffffffffffffffffffffffff16815260200190815260200160002060006101000a81548160ff0219169083151502179055508173ffffffffffffffffffffffffffffffffffffffff166116cf611b93565b73ffffffffffffffffffffffffffffffffffffffff167f17307eab39ab6107e8899845ad3d59bd9653f200f220920489ca2b5937696c31836040516117149190613af6565b60405180910390a35050565b61173161172b611b93565b83611e05565b611770576040517f08c379a000000000000000000000000000000000000000000000000000000000815260040161176790613e13565b60405180910390fd5b61177c8484848461238f565b50505050565b606061178d82611ce0565b6117cc576040517f08c379a00000000000000000000000000000000000000000000000000000000081526004016117c390613db3565b60405180910390fd5b60006117d66123eb565b905060008151116117f65760405180602001604052806000815250611821565b806118008461247d565b604051602001611811929190613a34565b6040516020818303038152906040525b915050919050565b600c805461183690614167565b80601f016020809104026020016040519081016040528092919081815260200182805461186290614167565b80156118af5780601f10611884576101008083540402835291602001916118af565b820191906000526020600020905b81548152906001019060200180831161189257829003601f168201915b505050505081565b65017b3fda9b4b81565b736f84fa72ca4554e0eefcb9032e5a4f1fb41b726c81565b6000600560008473ffffffffffffffffffffffffffffffffffffffff1673ffffffffffffffffffffffffffffffffffffffff16815260200190815260200160002060008373ffffffffffffffffffffffffffffffffffffffff1673ffffffffffffffffffffffffffffffffffffffff16815260200190815260200160002060009054906101000a900460ff16905092915050565b611975611b93565b73ffffffffffffffffffffffffffffffffffffffff166119936114e3565b73ffffffffffffffffffffffffffffffffffffffff16146119e9576040517f08c379a00000000000000000000000000000000000000000000000000000000081526004016119e090613d73565b60405180910390fd5b600073ffffffffffffffffffffffffffffffffffffffff168173ffffffffffffffffffffffffffffffffffffffff161415611a59576040517f08c379a0000000000000000000000000000000000000000000000000000000008152600401611a5090613bd3565b60405180910390fd5b8073ffffffffffffffffffffffffffffffffffffffff16600a60009054906101000a900473ffffffffffffffffffffffffffffffffffffffff1673ffffffffffffffffffffffffffffffffffffffff167f8be0079c531659141344cd1fd0a4f28419497f9722a3daafe3b4186f6b6457e060405160405180910390a380600a60006101000a81548173ffffffffffffffffffffffffffffffffffffffff021916908373ffffffffffffffffffffffffffffffffffffffff16021790555050565b60007f780e9d63000000000000000000000000000000000000000000000000000000007bffffffffffffffffffffffffffffffffffffffffffffffffffffffff1916827bffffffffffffffffffffffffffffffffffffffffffffffffffffffff19161480611b8c5750611b8b8261262a565b5b9050919050565b600033905090565b611ba361111d565b15611be3576040517f08c379a0000000000000000000000000000000000000000000000000000000008152600401611bda90613c93565b60405180910390fd5b6001600a60146101000a81548160ff0219169083151502179055507f62e78cea01bee320cd4e420270b5ea74000d11b0c9f74754ebdbfc544b05a258611c27611b93565b604051611c349190613a6d565b60405180910390a1565b611c4661111d565b611c85576040517f08c379a0000000000000000000000000000000000000000000000000000000008152600401611c7c90613b53565b60405180910390fd5b6000600a60146101000a81548160ff0219169083151502179055507f5db9ee0a495bf2e6ff9c91a7834c1ba4fdd244a5e8aa4e537bd38aeae4b073aa611cc9611b93565b604051611cd69190613a6d565b60405180910390a1565b60008073ffffffffffffffffffffffffffffffffffffffff166002600084815260200190815260200160002060009054906101000a900473ffffffffffffffffffffffffffffffffffffffff1673ffffffffffffffffffffffffffffffffffffffff1614159050919050565b816004600083815260200190815260200160002060006101000a81548173ffffffffffffffffffffffffffffffffffffffff021916908373ffffffffffffffffffffffffffffffffffffffff160217905550808273ffffffffffffffffffffffffffffffffffffffff16611dbf83611134565b73ffffffffffffffffffffffffffffffffffffffff167f8c5be1e5ebec7d5bd14f71427d1e84f3dd0314c0f7b2291e5b200ac8c7c3b92560405160405180910390a45050565b6000611e1082611ce0565b611e4f576040517f08c379a0000000000000000000000000000000000000000000000000000000008152600401611e4690613c73565b60405180910390fd5b6000611e5a83611134565b90508073ffffffffffffffffffffffffffffffffffffffff168473ffffffffffffffffffffffffffffffffffffffff161480611ec957508373ffffffffffffffffffffffffffffffffffffffff16611eb18461098e565b73ffffffffffffffffffffffffffffffffffffffff16145b80611eda5750611ed981856118d9565b5b91505092915050565b8273ffffffffffffffffffffffffffffffffffffffff16611f0382611134565b73ffffffffffffffffffffffffffffffffffffffff1614611f59576040517f08c379a0000000000000000000000000000000000000000000000000000000008152600401611f5090613d93565b60405180910390fd5b600073ffffffffffffffffffffffffffffffffffffffff168273ffffffffffffffffffffffffffffffffffffffff161415611fc9576040517f08c379a0000000000000000000000000000000000000000000000000000000008152600401611fc090613c13565b60405180910390fd5b611fd483838361270c565b611fdf600082611d4c565b6001600360008573ffffffffffffffffffffffffffffffffffffffff1673ffffffffffffffffffffffffffffffffffffffff168152602001908152602001600020600082825461202f919061407d565b925050819055506001600360008473ffffffffffffffffffffffffffffffffffffffff1673ffffffffffffffffffffffffffffffffffffffff16815260200190815260200160002060008282546120869190613f9c565b92505081905550816002600083815260200190815260200160002060006101000a81548173ffffffffffffffffffffffffffffffffffffffff021916908373ffffffffffffffffffffffffffffffffffffffff160217905550808273ffffffffffffffffffffffffffffffffffffffff168473ffffffffffffffffffffffffffffffffffffffff167fddf252ad1be2c89b69c2b068fc378daa952ba7f163c4a11628f55a4df523b3ef60405160405180910390a4505050565b6000818361214d9190614023565b905092915050565b6000612161600b61271c565b905090565b6000612170612155565b905061217c600b61272a565b6121868282612740565b807f645f26e653c951cec836533f8fe0616d301c20a17153debc17d7c3dbe4f32b2860405160405180910390a25050565b60006121c282611134565b90506121d08160008461270c565b6121db600083611d4c565b6001600360008373ffffffffffffffffffffffffffffffffffffffff1673ffffffffffffffffffffffffffffffffffffffff168152602001908152602001600020600082825461222b919061407d565b925050819055506002600083815260200190815260200160002060006101000a81549073ffffffffffffffffffffffffffffffffffffffff021916905581600073ffffffffffffffffffffffffffffffffffffffff168273ffffffffffffffffffffffffffffffffffffffff167fddf252ad1be2c89b69c2b068fc378daa952ba7f163c4a11628f55a4df523b3ef60405160405180910390a45050565b600081836122d69190613ff2565b905092915050565b60008273ffffffffffffffffffffffffffffffffffffffff168260405161230490613a58565b60006040518083038185875af1925050503d8060008114612341576040519150601f19603f3d011682016040523d82523d6000602084013e612346565b606091505b505090508061238a576040517f08c379a000000000000000000000000000000000000000000000000000000000815260040161238190613df3565b60405180910390fd5b505050565b61239a848484611ee3565b6123a68484848461275e565b6123e5576040517f08c379a00000000000000000000000000000000000000000000000000000000081526004016123dc90613bb3565b60405180910390fd5b50505050565b6060600c80546123fa90614167565b80601f016020809104026020016040519081016040528092919081815260200182805461242690614167565b80156124735780601f1061244857610100808354040283529160200191612473565b820191906000526020600020905b81548152906001019060200180831161245657829003601f168201915b5050505050905090565b606060008214156124c5576040518060400160405280600181526020017f30000000000000000000000000000000000000000000000000000000000000008152509050612625565b600082905060005b600082146124f75780806124e0906141ca565b915050600a826124f09190613ff2565b91506124cd565b60008167ffffffffffffffff811115612539577f4e487b7100000000000000000000000000000000000000000000000000000000600052604160045260246000fd5b6040519080825280601f01601f19166020018201604052801561256b5781602001600182028036833780820191505090505b5090505b6000851461261e57600182612584919061407d565b9150600a856125939190614213565b603061259f9190613f9c565b60f81b8183815181106125db577f4e487b7100000000000000000000000000000000000000000000000000000000600052603260045260246000fd5b60200101907effffffffffffffffffffffffffffffffffffffffffffffffffffffffffffff1916908160001a905350600a856126179190613ff2565b945061256f565b8093505050505b919050565b60007f80ac58cd000000000000000000000000000000000000000000000000000000007bffffffffffffffffffffffffffffffffffffffffffffffffffffffff1916827bffffffffffffffffffffffffffffffffffffffffffffffffffffffff191614806126f557507f5b5e139f000000000000000000000000000000000000000000000000000000007bffffffffffffffffffffffffffffffffffffffffffffffffffffffff1916827bffffffffffffffffffffffffffffffffffffffffffffffffffffffff1916145b806127055750612704826128f5565b5b9050919050565b61271783838361295f565b505050565b600081600001549050919050565b6001816000016000828254019250508190555050565b61275a8282604051806020016040528060008152506129f9565b5050565b600061277f8473ffffffffffffffffffffffffffffffffffffffff16612a54565b156128e8578373ffffffffffffffffffffffffffffffffffffffff1663150b7a026127a8611b93565b8786866040518563ffffffff1660e01b81526004016127ca9493929190613a88565b602060405180830381600087803b1580156127e457600080fd5b505af192505050801561281557506040513d601f19601f82011682018060405250810190612812919061349b565b60015b612898573d8060008114612845576040519150601f19603f3d011682016040523d82523d6000602084013e61284a565b606091505b50600081511415612890576040517f08c379a000000000000000000000000000000000000000000000000000000000815260040161288790613bb3565b60405180910390fd5b805181602001fd5b63150b7a0260e01b7bffffffffffffffffffffffffffffffffffffffffffffffffffffffff1916817bffffffffffffffffffffffffffffffffffffffffffffffffffffffff1916149150506128ed565b600190505b949350505050565b60007f01ffc9a7000000000000000000000000000000000000000000000000000000007bffffffffffffffffffffffffffffffffffffffffffffffffffffffff1916827bffffffffffffffffffffffffffffffffffffffffffffffffffffffff1916149050919050565b61296a838383612a67565b6129726114e3565b73ffffffffffffffffffffffffffffffffffffffff16612990611b93565b73ffffffffffffffffffffffffffffffffffffffff16146129f4576129b361111d565b156129f3576040517f08c379a00000000000000000000000000000000000000000000000000000000081526004016129ea90613b33565b60405180910390fd5b5b505050565b612a038383612b7b565b612a10600084848461275e565b612a4f576040517f08c379a0000000000000000000000000000000000000000000000000000000008152600401612a4690613bb3565b60405180910390fd5b505050565b600080823b905060008111915050919050565b612a72838383612d49565b600073ffffffffffffffffffffffffffffffffffffffff168373ffffffffffffffffffffffffffffffffffffffff161415612ab557612ab081612d4e565b612af4565b8173ffffffffffffffffffffffffffffffffffffffff168373ffffffffffffffffffffffffffffffffffffffff1614612af357612af28382612d97565b5b5b600073ffffffffffffffffffffffffffffffffffffffff168273ffffffffffffffffffffffffffffffffffffffff161415612b3757612b3281612f04565b612b76565b8273ffffffffffffffffffffffffffffffffffffffff168273ffffffffffffffffffffffffffffffffffffffff1614612b7557612b748282613047565b5b5b505050565b600073ffffffffffffffffffffffffffffffffffffffff168273ffffffffffffffffffffffffffffffffffffffff161415612beb576040517f08c379a0000000000000000000000000000000000000000000000000000000008152600401612be290613d13565b60405180910390fd5b612bf481611ce0565b15612c34576040517f08c379a0000000000000000000000000000000000000000000000000000000008152600401612c2b90613bf3565b60405180910390fd5b612c406000838361270c565b6001600360008473ffffffffffffffffffffffffffffffffffffffff1673ffffffffffffffffffffffffffffffffffffffff1681526020019081526020016000206000828254612c909190613f9c565b92505081905550816002600083815260200190815260200160002060006101000a81548173ffffffffffffffffffffffffffffffffffffffff021916908373ffffffffffffffffffffffffffffffffffffffff160217905550808273ffffffffffffffffffffffffffffffffffffffff16600073ffffffffffffffffffffffffffffffffffffffff167fddf252ad1be2c89b69c2b068fc378daa952ba7f163c4a11628f55a4df523b3ef60405160405180910390a45050565b505050565b6008805490506009600083815260200190815260200160002081905550600881908060018154018082558091505060019003906000526020600020016000909190919091505550565b60006001612da4846111e6565b612dae919061407d565b9050600060076000848152602001908152602001600020549050818114612e93576000600660008673ffffffffffffffffffffffffffffffffffffffff1673ffffffffffffffffffffffffffffffffffffffff168152602001908152602001600020600084815260200190815260200160002054905080600660008773ffffffffffffffffffffffffffffffffffffffff1673ffffffffffffffffffffffffffffffffffffffff168152602001908152602001600020600084815260200190815260200160002081905550816007600083815260200190815260200160002081905550505b6007600084815260200190815260200160002060009055600660008573ffffffffffffffffffffffffffffffffffffffff1673ffffffffffffffffffffffffffffffffffffffff16815260200190815260200160002060008381526020019081526020016000206000905550505050565b60006001600880549050612f18919061407d565b9050600060096000848152602001908152602001600020549050600060088381548110612f6e577f4e487b7100000000000000000000000000000000000000000000000000000000600052603260045260246000fd5b906000526020600020015490508060088381548110612fb6577f4e487b7100000000000000000000000000000000000000000000000000000000600052603260045260246000fd5b90600052602060002001819055508160096000838152602001908152602001600020819055506009600085815260200190815260200160002060009055600880548061302b577f4e487b7100000000000000000000000000000000000000000000000000000000600052603160045260246000fd5b6001900381819060005260206000200160009055905550505050565b6000613052836111e6565b905081600660008573ffffffffffffffffffffffffffffffffffffffff1673ffffffffffffffffffffffffffffffffffffffff168152602001908152602001600020600083815260200190815260200160002081905550806007600084815260200190815260200160002081905550505050565b8280546130d290614167565b90600052602060002090601f0160209004810192826130f4576000855561313b565b82601f1061310d57805160ff191683800117855561313b565b8280016001018555821561313b579182015b8281111561313a57825182559160200191906001019061311f565b5b509050613148919061314c565b5090565b5b8082111561316557600081600090555060010161314d565b5090565b600061317c61317784613eb3565b613e8e565b90508281526020810184848401111561319457600080fd5b61319f848285614125565b509392505050565b60006131ba6131b584613ee4565b613e8e565b9050828152602081018484840111156131d257600080fd5b6131dd848285614125565b509392505050565b6000813590506131f48161499e565b92915050565b600081359050613209816149b5565b92915050565b60008135905061321e816149cc565b92915050565b600081519050613233816149cc565b92915050565b600082601f83011261324a57600080fd5b813561325a848260208601613169565b91505092915050565b600082601f83011261327457600080fd5b81356132848482602086016131a7565b91505092915050565b60008135905061329c816149e3565b92915050565b6000602082840312156132b457600080fd5b60006132c2848285016131e5565b91505092915050565b600080604083850312156132de57600080fd5b60006132ec858286016131e5565b92505060206132fd858286016131e5565b9150509250929050565b60008060006060848603121561331c57600080fd5b600061332a868287016131e5565b935050602061333b868287016131e5565b925050604061334c8682870161328d565b9150509250925092565b6000806000806080858703121561336c57600080fd5b600061337a878288016131e5565b945050602061338b878288016131e5565b935050604061339c8782880161328d565b925050606085013567ffffffffffffffff8111156133b957600080fd5b6133c587828801613239565b91505092959194509250565b600080604083850312156133e457600080fd5b60006133f2858286016131e5565b9250506020613403858286016131fa565b9150509250929050565b6000806040838503121561342057600080fd5b600061342e858286016131e5565b925050602061343f8582860161328d565b9150509250929050565b60006020828403121561345b57600080fd5b6000613469848285016131fa565b91505092915050565b60006020828403121561348457600080fd5b60006134928482850161320f565b91505092915050565b6000602082840312156134ad57600080fd5b60006134bb84828501613224565b91505092915050565b6000602082840312156134d657600080fd5b600082013567ffffffffffffffff8111156134f057600080fd5b6134fc84828501613263565b91505092915050565b60006020828403121561351757600080fd5b60006135258482850161328d565b91505092915050565b600061353a8383613a16565b60208301905092915050565b61354f816140b1565b82525050565b600061356082613f25565b61356a8185613f53565b935061357583613f15565b8060005b838110156135a657815161358d888261352e565b975061359883613f46565b925050600181019050613579565b5085935050505092915050565b6135bc816140c3565b82525050565b60006135cd82613f30565b6135d78185613f64565b93506135e7818560208601614134565b6135f081614300565b840191505092915050565b600061360682613f3b565b6136108185613f80565b9350613620818560208601614134565b61362981614300565b840191505092915050565b600061363f82613f3b565b6136498185613f91565b9350613659818560208601614134565b80840191505092915050565b6000613672602b83613f80565b915061367d82614311565b604082019050919050565b6000613695601483613f80565b91506136a082614360565b602082019050919050565b60006136b8600e83613f80565b91506136c382614389565b602082019050919050565b60006136db602b83613f80565b91506136e6826143b2565b604082019050919050565b60006136fe603283613f80565b915061370982614401565b604082019050919050565b6000613721602683613f80565b915061372c82614450565b604082019050919050565b6000613744601c83613f80565b915061374f8261449f565b602082019050919050565b6000613767602483613f80565b9150613772826144c8565b604082019050919050565b600061378a601983613f80565b915061379582614517565b602082019050919050565b60006137ad600983613f80565b91506137b882614540565b602082019050919050565b60006137d0602c83613f80565b91506137db82614569565b604082019050919050565b60006137f3601083613f80565b91506137fe826145b8565b602082019050919050565b6000613816603883613f80565b9150613821826145e1565b604082019050919050565b6000613839602a83613f80565b915061384482614630565b604082019050919050565b600061385c602983613f80565b91506138678261467f565b604082019050919050565b600061387f602083613f80565b915061388a826146ce565b602082019050919050565b60006138a2600883613f80565b91506138ad826146f7565b602082019050919050565b60006138c5602c83613f80565b91506138d082614720565b604082019050919050565b60006138e8602083613f80565b91506138f38261476f565b602082019050919050565b600061390b602983613f80565b915061391682614798565b604082019050919050565b600061392e602f83613f80565b9150613939826147e7565b604082019050919050565b6000613951602183613f80565b915061395c82614836565b604082019050919050565b6000613974600083613f75565b915061397f82614885565b600082019050919050565b6000613997601083613f80565b91506139a282614888565b602082019050919050565b60006139ba603183613f80565b91506139c5826148b1565b604082019050919050565b60006139dd602c83613f80565b91506139e882614900565b604082019050919050565b6000613a00603083613f80565b9150613a0b8261494f565b604082019050919050565b613a1f8161411b565b82525050565b613a2e8161411b565b82525050565b6000613a408285613634565b9150613a4c8284613634565b91508190509392505050565b6000613a6382613967565b9150819050919050565b6000602082019050613a826000830184613546565b92915050565b6000608082019050613a9d6000830187613546565b613aaa6020830186613546565b613ab76040830185613a25565b8181036060830152613ac981846135c2565b905095945050505050565b60006020820190508181036000830152613aee8184613555565b905092915050565b6000602082019050613b0b60008301846135b3565b92915050565b60006020820190508181036000830152613b2b81846135fb565b905092915050565b60006020820190508181036000830152613b4c81613665565b9050919050565b60006020820190508181036000830152613b6c81613688565b9050919050565b60006020820190508181036000830152613b8c816136ab565b9050919050565b60006020820190508181036000830152613bac816136ce565b9050919050565b60006020820190508181036000830152613bcc816136f1565b9050919050565b60006020820190508181036000830152613bec81613714565b9050919050565b60006020820190508181036000830152613c0c81613737565b9050919050565b60006020820190508181036000830152613c2c8161375a565b9050919050565b60006020820190508181036000830152613c4c8161377d565b9050919050565b60006020820190508181036000830152613c6c816137a0565b9050919050565b60006020820190508181036000830152613c8c816137c3565b9050919050565b60006020820190508181036000830152613cac816137e6565b9050919050565b60006020820190508181036000830152613ccc81613809565b9050919050565b60006020820190508181036000830152613cec8161382c565b9050919050565b60006020820190508181036000830152613d0c8161384f565b9050919050565b60006020820190508181036000830152613d2c81613872565b9050919050565b60006020820190508181036000830152613d4c81613895565b9050919050565b60006020820190508181036000830152613d6c816138b8565b9050919050565b60006020820190508181036000830152613d8c816138db565b9050919050565b60006020820190508181036000830152613dac816138fe565b9050919050565b60006020820190508181036000830152613dcc81613921565b9050919050565b60006020820190508181036000830152613dec81613944565b9050919050565b60006020820190508181036000830152613e0c8161398a565b9050919050565b60006020820190508181036000830152613e2c816139ad565b9050919050565b60006020820190508181036000830152613e4c816139d0565b9050919050565b60006020820190508181036000830152613e6c816139f3565b9050919050565b6000602082019050613e886000830184613a25565b92915050565b6000613e98613ea9565b9050613ea48282614199565b919050565b6000604051905090565b600067ffffffffffffffff821115613ece57613ecd6142d1565b5b613ed782614300565b9050602081019050919050565b600067ffffffffffffffff821115613eff57613efe6142d1565b5b613f0882614300565b9050602081019050919050565b6000819050602082019050919050565b600081519050919050565b600081519050919050565b600081519050919050565b6000602082019050919050565b600082825260208201905092915050565b600082825260208201905092915050565b600081905092915050565b600082825260208201905092915050565b600081905092915050565b6000613fa78261411b565b9150613fb28361411b565b9250827fffffffffffffffffffffffffffffffffffffffffffffffffffffffffffffffff03821115613fe757613fe6614244565b5b828201905092915050565b6000613ffd8261411b565b91506140088361411b565b92508261401857614017614273565b5b828204905092915050565b600061402e8261411b565b91506140398361411b565b9250817fffffffffffffffffffffffffffffffffffffffffffffffffffffffffffffffff048311821515161561407257614071614244565b5b828202905092915050565b60006140888261411b565b91506140938361411b565b9250828210156140a6576140a5614244565b5b828203905092915050565b60006140bc826140fb565b9050919050565b60008115159050919050565b60007fffffffff0000000000000000000000000000000000000000000000000000000082169050919050565b600073ffffffffffffffffffffffffffffffffffffffff82169050919050565b6000819050919050565b82818337600083830152505050565b60005b83811015614152578082015181840152602081019050614137565b83811115614161576000848401525b50505050565b6000600282049050600182168061417f57607f821691505b60208210811415614193576141926142a2565b5b50919050565b6141a282614300565b810181811067ffffffffffffffff821117156141c1576141c06142d1565b5b80604052505050565b60006141d58261411b565b91507fffffffffffffffffffffffffffffffffffffffffffffffffffffffffffffffff82141561420857614207614244565b5b600182019050919050565b600061421e8261411b565b91506142298361411b565b92508261423957614238614273565b5b828206905092915050565b7f4e487b7100000000000000000000000000000000000000000000000000000000600052601160045260246000fd5b7f4e487b7100000000000000000000000000000000000000000000000000000000600052601260045260246000fd5b7f4e487b7100000000000000000000000000000000000000000000000000000000600052602260045260246000fd5b7f4e487b7100000000000000000000000000000000000000000000000000000000600052604160045260246000fd5b6000601f19601f8301169050919050565b7f4552433732315061757361626c653a20746f6b656e207472616e73666572207760008201527f68696c6520706175736564000000000000000000000000000000000000000000602082015250565b7f5061757361626c653a206e6f7420706175736564000000000000000000000000600082015250565b7f45786365656473206e756d626572000000000000000000000000000000000000600082015250565b7f455243373231456e756d657261626c653a206f776e657220696e646578206f7560008201527f74206f6620626f756e6473000000000000000000000000000000000000000000602082015250565b7f4552433732313a207472616e7366657220746f206e6f6e20455243373231526560008201527f63656976657220696d706c656d656e7465720000000000000000000000000000602082015250565b7f4f776e61626c653a206e6577206f776e657220697320746865207a65726f206160008201527f6464726573730000000000000000000000000000000000000000000000000000602082015250565b7f4552433732313a20746f6b656e20616c7265616479206d696e74656400000000600082015250565b7f4552433732313a207472616e7366657220746f20746865207a65726f2061646460008201527f7265737300000000000000000000000000000000000000000000000000000000602082015250565b7f4552433732313a20617070726f766520746f2063616c6c657200000000000000600082015250565b7f4d6178206c696d69740000000000000000000000000000000000000000000000600082015250565b7f4552433732313a206f70657261746f7220717565727920666f72206e6f6e657860008201527f697374656e7420746f6b656e0000000000000000000000000000000000000000602082015250565b7f5061757361626c653a2070617573656400000000000000000000000000000000600082015250565b7f4552433732313a20617070726f76652063616c6c6572206973206e6f74206f7760008201527f6e6572206e6f7220617070726f76656420666f7220616c6c0000000000000000602082015250565b7f4552433732313a2062616c616e636520717565727920666f7220746865207a6560008201527f726f206164647265737300000000000000000000000000000000000000000000602082015250565b7f4552433732313a206f776e657220717565727920666f72206e6f6e657869737460008201527f656e7420746f6b656e0000000000000000000000000000000000000000000000602082015250565b7f4552433732313a206d696e7420746f20746865207a65726f2061646472657373600082015250565b7f53616c6520656e64000000000000000000000000000000000000000000000000600082015250565b7f4552433732313a20617070726f76656420717565727920666f72206e6f6e657860008201527f697374656e7420746f6b656e0000000000000000000000000000000000000000602082015250565b7f4f776e61626c653a2063616c6c6572206973206e6f7420746865206f776e6572600082015250565b7f4552433732313a207472616e73666572206f6620746f6b656e2074686174206960008201527f73206e6f74206f776e0000000000000000000000000000000000000000000000602082015250565b7f4552433732314d657461646174613a2055524920717565727920666f72206e6f60008201527f6e6578697374656e7420746f6b656e0000000000000000000000000000000000602082015250565b7f4552433732313a20617070726f76616c20746f2063757272656e74206f776e6560008201527f7200000000000000000000000000000000000000000000000000000000000000602082015250565b50565b7f5472616e73666572206661696c65642e00000000000000000000000000000000600082015250565b7f4552433732313a207472616e736665722063616c6c6572206973206e6f74206f60008201527f776e6572206e6f7220617070726f766564000000000000000000000000000000602082015250565b7f455243373231456e756d657261626c653a20676c6f62616c20696e646578206f60008201527f7574206f6620626f756e64730000000000000000000000000000000000000000602082015250565b7f4552433732314275726e61626c653a2063616c6c6572206973206e6f74206f7760008201527f6e6572206e6f7220617070726f76656400000000000000000000000000000000602082015250565b6149a7816140b1565b81146149b257600080fd5b50565b6149be816140c3565b81146149c957600080fd5b50565b6149d5816140cf565b81146149e057600080fd5b50565b6149ec8161411b565b81146149f757600080fd5b5056fea2646970667358221220e5db7eea629cbbd820f2c7eb12af6d5ec4c7cd1407f1be986fe553520271eadc64736f6c63430008040033",
  "linkReferences": {},
  "deployedLinkReferences": {}
}